:020000040000fa
:080000000002040000000000f2
:020000040000fa
:040008004a040000a6
:020000040000fa
:04000c004a040000a2
:020000040000fa
:040010004a0400009e
:020000040000fa
:040014004a0400009a
:020000040000fa
:040018004a04000096
:020000040000fa
:04001c004a04000092
:020000040000fa
:040020004a0400008e
:020000040000fa
:040024004a0400008a
:020000040000fa
:040028004a04000086
:020000040000fa
:04002c004a04000082
:020000040000fa
:040030004a0400007e
:020000040000fa
:040034004a0400007a
:020000040000fa
:040038004a04000076
:020000040000fa
:04003c004a04000072
:020000040000fa
:040040004a0400006e
:020000040000fa
:040044004a0400006a
:020000040000fa
:040048004a04000066
:020000040000fa
:04004c004a04000062
:020000040000fa
:040050004a0400005e
:020000040000fa
:040054004a0400005a
:020000040000fa
:040058004a04000056
:020000040000fa
:04005c007603000027
:020000040000fa
:040060004a0400004e
:020000040000fa
:040064004a0400004a
:020000040000fa
:040068004a04000046
:020000040000fa
:04006c004a04000042
:020000040000fa
:040070004a0400003e
:020000040000fa
:040074004a0400003a
:020000040000fa
:040078004a04000036
:020000040000fa
:04007c004a04000032
:020000040000fa
:040080004a0400002e
:020000040000fa
:040084004a0400002a
:020000040000fa
:040088004a04000026
:020000040000fa
:04008c004a04000022
:020000040000fa
:040090004a0400001e
:020000040000fa
:040094004a0400001a
:020000040000fa
:040098004a04000016
:020000040000fa
:04009c004a04000012
:020000040000fa
:0400a0004a0400000e
:020000040000fa
:0400a4004a0400000a
:020000040000fa
:0400a8004a04000006
:020000040000fa
:0400ac004a04000002
:020000040000fa
:0400b0004a040000fe
:020000040000fa
:0400b4004a040000fa
:020000040000fa
:0400b8004a040000f6
:020000040000fa
:0400bc004a040000f2
:020000040000fa
:0400c0004a040000ee
:020000040000fa
:0400c4004a040000ea
:020000040000fa
:0400c8004a040000e6
:020000040000fa
:0400cc004a040000e2
:020000040000fa
:0400d0004a040000de
:020000040000fa
:0400d4004a040000da
:020000040000fa
:0400d8004a040000d6
:020000040000fa
:0400dc004a040000d2
:020000040000fa
:0400e0004a040000ce
:020000040000fa
:0400e4004a040000ca
:020000040000fa
:0400e8004a040000c6
:020000040000fa
:0400ec004a040000c2
:020000040000fa
:0400f0004a040000be
:020000040000fa
:0400f4004a040000ba
:020000040000fa
:0400f8004a040000b6
:020000040000fa
:0400fc004a040000b2
:020000040000fa
:040100004a040000ad
:020000040000fa
:040104004a040000a9
:020000040000fa
:040108004a040000a5
:020000040000fa
:04010c004a040000a1
:020000040000fa
:040110004a0400009d
:020000040000fa
:040114004a04000099
:020000040000fa
:040118004a04000095
:020000040000fa
:04011c004a04000091
:020000040000fa
:040120004a0400008d
:020000040000fa
:040124004a04000089
:020000040000fa
:040128004a04000085
:020000040000fa
:04012c004a04000081
:020000040000fa
:040130004a0400007d
:020000040000fa
:040134004a04000079
:020000040000fa
:040138004a04000075
:020000040000fa
:04013c004a04000071
:020000040000fa
:040140004a0400006d
:020000040000fa
:040144004a04000069
:020000040000fa
:040148004a04000065
:020000040000fa
:04014c004a04000061
:020000040000fa
:040150004a0400005d
:020000040000fa
:040154004a04000059
:020000040000fa
:040158004a04000055
:020000040000fa
:04015c004a04000051
:020000040000fa
:040160004a0400004d
:020000040000fa
:040164004a04000049
:020000040000fa
:040168004a04000045
:020000040000fa
:04016c004a04000041
:020000040000fa
:040170004a0400003d
:020000040000fa
:040174004a04000039
:020000040000fa
:040178004a04000035
:020000040000fa
:04017c004a04000031
:020000040000fa
:040180004a0400002d
:020000040000fa
:040184004a04000029
:020000040000fa
:040188004a04000025
:020000040000fa
:04018c004a04000021
:020000040000fa
:040190004a0400001d
:020000040000fa
:040194004a04000019
:020000040000fa
:040198004a04000015
:020000040000fa
:04019c004a04000011
:020000040000fa
:0401a0004a0400000d
:020000040000fa
:0401a4004a04000009
:020000040000fa
:0401a8004a04000005
:020000040000fa
:0401ac004a04000001
:020000040000fa
:0401b0004a040000fd
:020000040000fa
:0401b4004a040000f9
:020000040000fa
:0401b8004a040000f5
:020000040000fa
:0401bc004a040000f1
:020000040000fa
:0401c0004a040000ed
:020000040000fa
:0401c4004a040000e9
:020000040000fa
:0401c8004a040000e5
:020000040000fa
:0401cc004a040000e1
:020000040000fa
:0401d0004a040000dd
:020000040000fa
:0401d4004a040000d9
:020000040000fa
:0401d8004a040000d5
:020000040000fa
:0401dc004a040000d1
:020000040000fa
:0401e0004a040000cd
:020000040000fa
:0401e4004a040000c9
:020000040000fa
:0401e8004a040000c5
:020000040000fa
:0401ec004a040000c1
:020000040000fa
:0401f0004a040000bd
:020000040000fa
:0401f4004a040000b9
:020000040000fa
:0401f8004a040000b5
:020000040000fa
:0401fc004a040000b1
:020000040000fa
:040200004a040000ac
:020000040000fa
:040204004a040000a8
:020000040000fa
:040208004a040000a4
:020000040000fa
:04020c004a040000a0
:020000040000fa
:040210004a0400009c
:020000040000fa
:040214004a04000098
:020000040000fa
:040218004a04000094
:020000040000fa
:04021c004a04000090
:020000040000fa
:040220004a0400008c
:020000040000fa
:040224004a04000088
:020000040000fa
:040228004a04000084
:020000040000fa
:04022c004a04000080
:020000040000fa
:040230004a0400007c
:020000040000fa
:040234004a04000078
:020000040000fa
:040238004a04000074
:020000040000fa
:04023c004a04000070
:020000040000fa
:040240004a0400006c
:020000040000fa
:040244004a04000068
:020000040000fa
:040248004a04000064
:020000040000fa
:04024c004a04000060
:020000040000fa
:040250004a0400005c
:020000040000fa
:040254004a04000058
:020000040000fa
:040258004a04000054
:020000040000fa
:04025c004a04000050
:020000040000fa
:040260004a0400004c
:020000040000fa
:040264004a04000048
:020000040000fa
:040268004a04000044
:020000040000fa
:04026c004a04000040
:020000040000fa
:040270004a0400003c
:020000040000fa
:040274004a04000038
:020000040000fa
:040278004a04000034
:020000040000fa
:04027c004a04000030
:020000040000fa
:040280004a0400002c
:020000040000fa
:10040000af4c22000eff24000e0188000000000007
:10041000000020000000e000020032000001200087
:100420002002880014000700210107000000e000fe
:1004300003003a0060802300010020000200370022
:100440000000200001002000810f70000100320038
:100450000f000700000020000000e0000200320052
:1004600000000200000000006644020000000000de
:100470000040da000000fe00400320000000e00021
:1004800002003200002020009001880000000600d9
:10049000a1028800800478000000eb001f003700f4
:1004a000e284440054a0b4009905ba00e2844400f8
:1004b00054a0b4009906ba00e284440054a0b400e9
:1004c0000006eb00476fde00fd07b200ae018800ba
:1004d000636ce10003003a000ad801000000eb0061
:1004e0000e003700606ce10008003a00004deb00a0
:1004f0000a05e800020039003420ec000af0a000f0
:100500008b05e900f9ff3e00040037006168e10057
:10051000010032000086eb000b00070019c7ba008b
:100520000e04e0001905ba0003003a000a00e000da
:10053000dbff3a0000000600fe07b200ae028800b2
:100540008a047800f5ff37000cd0a300e20f4d00bd
:100550001c00390089027800354dba000a05e80010
:10056000020039003420ec000af0a0008b05e900fd
:100570000f003200254dba000a05e80002003900dc
:100580003420ec000af0a0008b05e90008003200de
:100590000c00e0000600320015cdba000a05e800a4
:1005a000020039003420ec000af0a0008b05e900bd
:1005b0008984e80054a0b4000b00e000e2ff3a0098
:1005c000000006009902ba00055d78008b05e9007d
:1005d000f7ff3200c82ade00055d78008b05e900d0
:1005e000f3ff32000c00e000f1ff320019ddba0029
:1005f000eeff37001e430400000000001243040019
:1006000000000000fa42040000000000ee42040076
:10061000000000007e3d0400000000008e3d04004c
:10062000000000009a3d040000000000a63d040008
:1006300000000000822f040000000000b031040020
:1006400000000000f830040000000000be2d04008f
:1006500000000000ee27040000000000c627040090
:10066000000000005a410400000000006441040042
:10067000000000006e41040000000000784104000a
:100680000000000082410400000000008c410400d2
:1006900000000000301b040000000000721b04007a
:1006a00000000000d82004000000000056200400d4
:1006b00000000000401e0400000000008e1f040027
:1006c0000000000012070400000000003e060400c5
:1006d000000000004a0a0400000000002a0c040088
:1006e00000000000b8130400000000003600f8000d
:1006f000809fbe00829fbe00849fbe00869fbe007a
:100700000000fa002ed1bf000040e8002ef1b70033
:1007100000888000610060000000e0004a003200b4
:100720002fd1bf000040e8002ff1b700970f07005e
:10073000c1102100e02c220022200700821121009c
:1007400001112100c0102100ed1f0700608880000a
:100750001019890070888000501989004088800035
:100760005018890050888000c0188900a0302200ed
:10077000a1170700201007009410070000888000d0
:10078000620060000000e00003003200208880006a
:100790001088880004003700b1198100208980008a
:1007a000008040001088880010888000011121001e
:1007b000631f070082102100011121004011210058
:1007c000bd1f0700812c220080102100a61f0700fa
:1007d00030888000222c220080007800802c2200ab
:1007e000fb1b070011168100e0152000808f5000d0
:1007f00002003e00f015200010168900211681002d
:10080000e0152000808f500002003e00f01520000f
:100810002016890031168100e0152000808f5000dd
:1008200002003e00f01520003016890030168100cd
:100830003063880020168100306288001016810025
:100840003061880008003700f01520003063880010
:10085000f015200030628800f0152000306188001b
:1008600010002000608988005b1b0700820f0700d2
:100870008f1c070001a8a9000080fa004f03be00ea
:100880004f02be004f01be004f00be003600f9000f
:10089000004006000040da000000fe0000f0a70063
:1008a0000000ea0000f0a7000080ea000000060057
:1008b000000005008f1fd1000e0007008f87e900a0
:1008c0000000e00000000600809feb000900070028
:1008d0008f87e9000000e0000000060014002000ff
:1008e0003f003700f4ff2f003d0037006011b800d3
:1008f00056003700889fbe008a9fbe008c9fbe00b6
:100900000404be000605be00809fbe00829fbe009c
:1009100021000700040678000800be000a01be009e
:100920001d000700840678004f03be004f02be0082
:100930008d4f76007fb0970013003300f0ff2f003b
:100940008b8f6b0006003b000d0666000c00a700b5
:100950000a00370007f0a600100020000a00370048
:10096000880f5200898f5a008a0f5b008b8f5b00c3
:10097000030039001000200001003e0000002000ac
:1009800007f0a7000000ea004f06be004f05be00ba
:100990004f04be000000060005ff2700058261002d
:1009a000070032000428e1000100320024000500a5
:1009b0000600070001003a00440005000408050095
:1009c00002000700f9ff3a00140005006f82610081
:1009d000810270008502710085027200000006002d
:1009e000889fbe008a9fbe00841f78006c000700ad
:1009f0004f00780011003300f0ff2f00838f6c0050
:100a000006003b00040565000a00a7000800370047
:100a100009f0a6001000200008003700820f5400e3
:100a2000838f5c00030039001000200001003e00ad
:100a30000000200009f0a7000000ea004f05be00fa
:100a40004f04be000000e00000000600889fbe00ca
:100a50008a9fbe000082700004027100048271004f
:100a6000260032000004be000200be006011b80083
:100a70006b092000950220000182cf000a00390096
:100a80000541b1000082cf00070039000541b100e7
:100a90000982cf00040039000541b1000882cf006f
:100aa000010039000541b100054252001200320038
:100ab0000a003b0082817100610164008100d10065
:100ac0000080d3008984d3000884d3008b05e8001c
:100ad0000442e800f7ff3a0007003700080444002a
:100ae00089844c0000004800818048008b05e900a3
:100af0000442e900f9ff3a00030007004f05be0079
:100b00004f04be00000006008100200061805500f7
:100b10000b003d000b00200061fe2f000100e100f2
:100b20001d00340082817100610164008904d100dc
:100b30000884d3000000e800faff3a0071002000aa
:100b400061006400030070000200600009003200d0
:100b500061044400e0844c000988a50005003200cf
:100b60008b05e8006808e10002003a008904d10022
:100b70000884d300f20f20000258e10005003d0078
:100b8000c75ddd00f907b2008980750008007800b4
:100b9000000006000bf827008b007800000005001d
:100ba0000004be00060007000003be000405be00ee
:100bb0000200be0002000700844f7500000006001e
:100bc000c70ade00f107b200f50fb20008003200dc
:100bd000e1cf4200020032000170a00024000500b5
:100be000810f700001003200040805004400050078
:100bf000810f700002003a00140005008502e90030
:100c00000000400081c04800fcff3b000170a000d4
:040c100024000500b7
:020000040000fa
:100c1400ffff0000120700003e0600004a0a000021
:100c24002a0c0000b81300000000000000000000bf
:100c340000000000000000000000000000000000b0
:100c440001000000a62300000000000000000000d6
:100c54004d610000722000002031000020320000ad
:100c64003031000037310000373a000034390000d9
:080c74003a33000033000000d8
:020000040000fa
:100c7c000400fa00100798001e0090008080eb0022
:100c8c00010878000040eb00004f78000e003700a0
:100c9c001e80fb009e0090000000e8000000400059
:100cac00008040008000eb00010878001e80fb00f3
:100cbc009e00900000804000720040008040eb00dd
:100ccc00014878001e4fe8001e407800e74f5000a6
:100cdc00efff36001e009000c1152100510898004e
:100cec001e0290006000b8006011b800001298005d
:100cfc001112980022129800331298001e029000d4
:100d0c006000b8006011b8004012980051129800b1
:100d1c0062129800731298001e0090008000eb0085
:100d2c00011898001e0090008040eb002170980084
:100d3c001e0090008000eb00211898001e0190000e
:100d4c006000b80030199800411998001e009000fe
:100d5c008040eb00217898001e0090008040eb0052
:100d6c00317898001e0090008000eb00611898000c
:100d7c001e0090008000eb00711898001e0090007f
:100d8c008000eb00012098001e0090008040eb00da
:100d9c0021c098001e0190006000b800202198002e
:100dac00312198001e0190006000b800402198008d
:100dbc00512198001e0090008040eb0041c8980023
:100dcc001e0190006000b800702198000129980065
:100ddc001e01900000002100010020001029980045
:100dec00212998001e009000110020003128980045
:100dfc001e019000000021000100200060099800f5
:100e0c0071099800d08a80009e00900041089800db
:100e1c000080fa00000006000c00fa005007980051
:100e2c005e00900020189000e40f5000100032007b
:100e3c00e40f500007003e00e10f50005c00320050
:100e4c00e10f500085013900e20f50001300320011
:100e5c008b013700e70f500035013200e70f5000cf
:100e6c0037003900e80f50000b01320084013700c5
:100e7c005e009000002090008000e8005e00900072
:100e8c00012098005e009000701890008000e8002f
:100e9c005e00900071189800790137005e00900098
:100eac00f01890005e0090006019900010c0b30024
:100ebc00828f5000010031000040eb000101e8007e
:100ecc00de009000f21898000004e00016003200da
:100edc005e0090008000eb00711898005e0090009e
:100eec00520907005e00900030199000c019900064
:100efc005e009000207890000080fb008000eb00ea
:100f0c000201400083814800000021000100200004
:100f1c00800f5100818f5900030036005e00900055
:100f2c008000eb00211898005e00900000209000db
:100f3c008000e8005e00900001209800500137000e
:100f4c005e00900002090700100798002107980026
:100f5c0032079800430798001e029000ae029000e2
:100f6c003e039000ce0390005e0090000506070043
:100f7c000004e000040032005e00900041002000fc
:100f8c00211898003e0137005e0090001e02900070
:100f9c00ae0290003e039000ce03900044109800e7
:100fac00551098006610980077109800340137009f
:100fbc005e009000f01890005e00900060199000a8
:100fcc0010c0b300828f5000010031000040eb00d4
:100fdc000101e800de009000f21898000004e00027
:100fec004e0032005e0090008000eb0071189800fb
:100ffc005e00900030199000c01990005e009000c7
:10100c00207890000080fb008000eb000201400083
:10101c00838148000000210001002000800f510056
:10102c00818f5900040036005e0190006000b8000a
:10103c0030199800411998000040eb00004f7800df
:10104c000040eb00104798005e00900050089000a4
:10105c00800178005e009000c0189000301890005d
:10106c0000017800828141001e81fb005e0290002d
:10107c000201e80002014100020142001201780065
:10108c00020278001e4190000281fb000201420026
:10109c00124178008249780061004000e0804800ed
:1010ac005e01900030199800411998001e40900084
:1010bc000040e800104798001e80fb00de00900006
:1010cc007200400000804000904078001e4090006c
:1010dc0080cf5000dcff3e001e4fe8005e00900009
:1010ec00307890009e4f5000d5ff3e005e0090007f
:1010fc0030199000c01990005e009000802890007c
:10110c0070209000800f5100818f5900030039002e
:10111c005e00900011c0b30041c898005e009000c2
:10112c008b080700100798002107980032079800d9
:10113c00430798001e029000ae0290003e03900000
:10114c00ce0390005e0090008e0507000004e000c6
:10115c00470032005e00900040c890000004e000a0
:10116c00430032005e009000b020900020209000e0
:10117c00e00f5000e08f58000e003d005e00900024
:10118c00b0209000202090005e019000402198003b
:10119c00512198005e0190006000b8003019980051
:1011ac00411998005e0090008100200021189800e1
:1011bc002d0037005e009000c01890003018900091
:1011cc00e00f5000e08f5800180032005e009000d5
:1011dc00701890000000e000070032005e009000e4
:1011ec00c0189000301890005e01900040219800cb
:1011fc0051219800190037005e00900030199000c2
:10120c00c01990005e009000207890000080fb00d8
:10121c008000eb0000005100818059005e019000bd
:10122c0040219800512198000c0037005e0090007e
:10123c0010299000a02990005e009000207890006a
:10124c000080fb008000eb00000051008180590001
:10125c005e01900040219800512198005e009000a2
:10126c007100200021189800000000008400370055
:10127c005e0090001e029000ae0290003e039000b3
:10128c00ce039000441098005510980066109800fa
:10129c00771098007a0037005e009000f0189000ec
:1012ac005e0090006019900010c0b300828f500057
:1012bc00010031000040eb000101e800de0090006d
:1012cc00f21898000004e000660032005e00900006
:1012dc008000eb00711898005e0090004021900097
:1012ec00d02190005e009000207890000080fb00e0
:1012fc008000eb0002004000838048005e019000fb
:10130c0040219800512198005e009000d020900060
:10131c0040209000e00f5000e08f58005300350043
:10132c005e00900021002000211898005400370026
:10133c005e009000f01890005e0090006019900024
:10134c0010c0b300828f5000010031000040eb0050
:10135c000101e800de009000f21898000004e000a3
:10136c00440032005e0090008000eb007118980081
:10137c005e00900030199000c01990005e00900043
:10138c00207890000080fb008000eb000201400000
:10139c00838148000000210001002000800f5100d3
:1013ac00818f5900040036005e0190006000b80087
:1013bc0030199800411998005e0090001b08070036
:1013cc005e009000d0209000402090000001be00f4
:1013dc005e009000c0189000301890000001510081
:1013ec00818159005e009000b02090002020900078
:1013fc00800f5100818f5900140036005e00900060
:10140c00d0209000402090000001be005e009000b3
:10141c00c0189000301890000001510081815900d3
:10142c005e009000a028900010289000020140005f
:10143c00838148005e009000b02090002020900036
:10144c00800f5100818f59000c003e005e0090000f
:10145c008000eb0021189800090037000000000004
:10146c0007003700000000000500370000000000f6
:10147c0003003700000000000100370000000000ee
:10148c000080fa00000006000400fa00000f78004b
:10149c00110798001e0078002018900080407800fa
:1014ac001e009000014878001e0090000000e8002b
:1014bc009e007800b1789000014878001e009000e2
:1014cc000080e8009e007800e118900081407800d0
:1014dc00014878001e009000630040009e007800d8
:1014ec00e1189000c808de008140780001487800bf
:1014fc001e009000640140001e007800c01890008f
:10150c003018900000407800004978001e009000d0
:10151c00650140001e007800c01890003018900043
:10152c00c809dd004800de0000807100c808de003c
:10153c0000407800004978001e00900066014000d1
:10154c001e007800c0189000301890004008de0093
:10155c0000407800004978001e00900067014000b0
:10156c001e007800c0189000301890004808de006b
:10157c0000407800004978001e0090006800400090
:10158c009e007800d10890008140780001487800d6
:10159c001e009000690140001e0078005008900069
:1015ac00cf80de00c809dd004800de00008071003d
:1015bc00c808de0000407800004978001e0090004a
:1015cc006a0140001e00780050089000cf80de00b9
:1015dc004008de0000407800004978001e009000b2
:1015ec006b0140001e00780050089000cf80de0098
:1015fc004808de0000407800004978001e0090008a
:10160c006c0140001e007800b0209000202090005b
:10161c0000407800004978001e0090006d014000e9
:10162c001e007800b020900020209000c809dd003a
:10163c004800de0000807100c888de0000407800a1
:10164c00004978001e0090006e0140001e007800da
:10165c00b0209000202090004088de00cf80de007b
:10166c0000407800004978001e0090006f01400097
:10167c001e007800b0209000202090004888de00ea
:10168c00cf80de0000407800004978001e009000fa
:10169c00700140001e007800d02090004020900087
:1016ac0000407800004978001e0090007101400055
:1016bc001e007800d020900040209000c809dd006a
:1016cc004800de0000807100c888de000040780011
:1016dc00004978001e009000720140001e00780046
:1016ec00d0209000402090004088de00cf80de00ab
:1016fc0000407800004978001e0090007301400003
:10170c001e007800d0209000402090004888de0019
:10171c00cf80de0000407800004978001e00900069
:10172c00740140001e007800a02890001028900042
:10173c0000407800004978001e00900075014000c0
:10174c001e007800a028900010289000c809dd0029
:10175c004800de0000807100c808de000040780000
:10176c00004978001e009000760140001e007800b1
:10177c00a0289000102890004008de00004078005f
:10178c00004978001e009000770140001e00780090
:10179c00a0289000102890004808de000040780037
:1017ac00004978001e009000780140001e0078006f
:1017bc00f008900060089000004078000049780024
:1017cc001e009000790140001e007800f008900087
:1017dc0060089000c809dd004800de000080710040
:1017ec00c808de0000407800004978001e00900018
:1017fc007a0140001e007800f0089000600890000c
:10180c004008de0000407800004978001e0090007f
:10181c007b0140001e007800f008900060089000ea
:10182c004808de0000407800004978001e00900057
:10183c007c00400021c8b30001487800d0c1b3003f
:10184c000080fa00000006001600fa00889fbe0017
:10185c008a9fbe00000f9800110f98004257980005
:10186c0040c0b300204798000040eb00004f7800c8
:10187c00ae40900011479800ce5090002e40900042
:10188c0080cf50000200310010c0b300b10337000c
:10189c001e0890000000e80010407800e84f50004f
:1018ac000200360010c0b300aa0337001e089000d7
:1018bc000000e800104078000004e00002003a004c
:1018cc0010c0b300a30337000e0890008000eb009b
:1018dc00211898000e0890008040eb003178980099
:1018ec000e0890008000eb00012098000e0990007b
:1018fc006000b80030199800411998001e0890003b
:10190c000080e800104078008080fb001e089000ea
:10191c0063004000104078000080fb004800dd00b0
:10192c00808040000e089000611898000e0890000e
:10193c00e01890000e089000711898000e0a9000a4
:10194c006000b8006011b800401298005112980065
:10195c0062129800731298000e0890008040eb0001
:10196c00217898000e08900021c0b30021c0980087
:10197c000e0890008040eb0041c898000e099000c2
:10198c006000b800402198005121980016013700e2
:10199c001e4090000080fb009e08900000804000dc
:1019ac0010417800324798001e4090000040e8003b
:1019bc00104798003e4090000080fb00e10f500063
:1019cc000a003200e10f500003003c000000e00070
:1019dc009b003200d0003700e20f50005100320063
:1019ec00e30f500072003200cb0037001e40900015
:1019fc000080fb009e0890000080400010407800a2
:101a0c008080fb001e4090000080fb000000e8007e
:101a1c001e09900000004100104078000080fb007f
:101a2c004800dd0000804000200798001e40900018
:101a3c000080fb000080e8009e08900000804000c1
:101a4c00104078008080fb001e4090000080fb005e
:101a5c00630040001e099000000041001040780017
:101a6c000080fb004800dd0000804000300798003b
:101a7c00d08a800010007800be009000c4060700d9
:101a8c00400798004e0090000000e00002003a0071
:101a9c0010c0b3002f0337004e00900010027800e6
:101aac0054079800d08a800010009000de0090004f
:101abc008f060700600798006e0090000000e000a1
:101acc0002003a0010c0b300220337001e84fb0052
:101adc006e00900050019000ae0090004e009000ff
:101aec0002000100800078000e0990000800e80058
:101afc000000400000004100010878001e80fb003f
:101b0c008e0890000000e8000000400000804000bb
:101b1c00100078000000e00081003a0010c0b30013
:101b2c000c0337001e4090000080fb000080e80092
:101b3c009e08900000804000104078008080fb00e0
:101b4c001e4090000080fb00630040001e099000c6
:101b5c0000004100104078000080fb004800dd00d0
:101b6c000080400030079800d08a80001000780078
:101b7c00be00900086060700400798004e009000bb
:101b8c000000e00002003a0010c0b300f102370080
:101b9c001e80fb008e0890000000e8000000400052
:101bac00008040004e049000080878005d0037006b
:101bbc001e4090000080fb000080e8009e08900012
:101bcc0000804000104078008080fb001e40900098
:101bdc000080fb00630040001e09900000004100e3
:101bec00104078000080fb004800dd0000804000c1
:101bfc0030079800d08a800010007800be0090005a
:101c0c0063060700400798004e0090000000e000bb
:101c1c0002003a0010c0b300ce0237001e80fb0059
:101c2c00ce009000910078000e0990000000e800b2
:101c3c000000400000004100010878003900370026
:101c4c001e83fb001e4090000080fb009e0890004d
:101c5c0000804000104078000081fb008001eb0008
:101c6c001e4090000080fb000000e8009e089000e1
:101c7c0000804000104078000082fb008002eb00e6
:101c8c004828dd00c820de00810070004820dd00ff
:101c9c0002014000838148001e4090000080fb0040
:101cac000080e8009e089000008040001040780002
:101cbc000080fb008000eb00c000dd000000200075
:101ccc0002014000838148001e4090000080fb0010
:101cdc00630040009e089000008040001040780097
:101cec000080fb008000eb00c800dd00000020003d
:101cfc0002004000838048000000780080007800db
:101d0c000e0990000600e8000000400000004100b1
:101d1c00010878000300370010c0b3008d023700b3
:101d2c00000000001e80fb009e4090008180fb00a4
:101d3c00e48040001e099000810041009140780031
:101d4c000e0990000000410072004000014878002c
:101d5c000e089000a07890001e80fb000e099000e9
:101d6c0072004000000041001040780080c040002c
:101d7c000e089000217898000e089000a0c09000ea
:101d8c001e80fb000e099000720040000000410014
:101d9c001040780080c040000e08900021c09800d0
:101dac000e089000207890000080fb0001002100bc
:101dbc0000017800110009008200d8008000fd00ad
:101dcc000100210000805000cf80de000e09900041
:101ddc0010299800212998001e4090006540400071
:101dec00104798001e4fe8001e0890000000e80005
:101dfc00104078009e4f5000e5fe3e001e409000c3
:101e0c000080fb009e08900000804000904078000d
:101e1c000e089000217098001e4090000040e800d1
:101e2c00104798001e4090000080fb009e08900018
:101e3c000080400010427800344798001e4090000b
:101e4c000040e800104798003e4090000080fb00e6
:101e5c00e10f50000a003200e10f500003003c007b
:101e6c000000e0008a003200bb003700e20f500097
:101e7c0048003200e30f500065003200b600370016
:101e8c001e4090000080fb009e08900000804000e7
:101e9c00104078008080fb001e4090000080fb000a
:101eac000000e8001e09900000004100104078007e
:101ebc000080fb004800dd000080400020079800f7
:101ecc001e4090000080fb000080e8009e089000ff
:101edc0000804000104078008080fb001e40900085
:101eec000080fb00630040001e09900000004100d0
:101efc00104078000080fb004800dd0000804000ae
:101f0c0030079800d08a800010007800be00900046
:101f1c009f050700400798004e0090000000e0006d
:101f2c0002003a0010c0b3000a0237004e009000c5
:101f3c001004780058079800d08a80001000900098
:101f4c00de0090006a050700600798006e009000a4
:101f5c000000e00002003a0010c0b300fd013700a1
:101f6c006e00900050019000ae0090004e0090006a
:101f7c00020001008e089000801898000e08900056
:101f8c00001890000000e00075003a0010c0b3008b
:101f9c00f00137001e4090000080fb000080e8003c
:101fac009e08900000804000104078008080fb006c
:101fbc001e4090000080fb00630040001e09900052
:101fcc0000004100104078000080fb004800dd005c
:101fdc000080400030079800d08a80001000780004
:101fec00be0090006a050700400798004e00900064
:101ffc000000e00002003a0010c0b300d501370029
:10200c000e089000ce009000011898005500370083
:10201c001e4090000080fb000080e8009e089000ad
:10202c0000804000104078008080fb001e40900033
:10203c000080fb00630040001e099000000041007e
:10204c00104078000080fb004800dd00008040005c
:10205c0030079800d08a800010007800be009000f5
:10206c004b050700400798004e0090000000e00070
:10207c0002003a0010c0b300b60137004e009000c9
:10208c00900078000e089000011898003500370079
:10209c001e4090000080fb009e08900000804000d5
:1020ac00104078000081fb008001eb001e40900086
:1020bc000080fb000000e8009e08900000804000bb
:1020cc00104078000082fb008002eb004828dd0005
:1020dc00c820de00810070004820dd0002014000b5
:1020ec00838148001e4090000080fb000080e800c7
:1020fc009e08900000804000104078000080fb009b
:10210c008000eb00c000dd00000020000201400058
:10211c00838148001e4090000080fb00630040005b
:10212c009e08900000804000104078000080fb006a
:10213c008000eb00c800dd00000020000200400021
:10214c008380480000007800800078000e08900022
:10215c00011898000300370010c0b3007d01370050
:10216c00000000001e4090006440400010479800a2
:10217c000e089000207090006f406000604f980037
:10218c000e089000a070900000c8b30000c0600062
:10219c00704f98006e4890000080fb00e20f5000da
:1021ac0018003200e20f500003003c00e10f500019
:1021bc0006003200ea003700e40f5000280032001d
:1021cc00e80f50005a003200e50037001e40900026
:1021dc000080fb009e0890000080400010407800ba
:1021ec000080fb008000eb006011b8000e0a90002c
:1021fc0000129800111298002212980033129800c5
:10220c00d90037001e4090000080fb009e08900013
:10221c0000804000104078008080fb001e40900041
:10222c000080fb000000e8001e0990000000410047
:10223c00104078000080fb004800dd00008040006a
:10224c008000eb006011b8000e0a9000001298009c
:10225c00111298002212980033129800c200370015
:10226c001e4090000080fb009e0890000080400003
:10227c00104078000081fb008001eb001e409000b4
:10228c000080fb000000e8009e08900000804000e9
:10229c00104078000082fb008002eb004828dd0033
:1022ac00c820de00810070004820dd0002014000e3
:1022bc00838148001e4090000080fb000080e800f5
:1022cc009e08900000804000104078000080fb00c9
:1022dc008000eb00c000dd00000020000201400087
:1022ec00838148001e4090000080fb00630040008a
:1022fc009e08900000804000104078000080fb0099
:10230c008000eb00c800dd0000002000020040004f
:10231c00838048006011b8000e0a900000129800eb
:10232c001112980022129800331298008e00370078
:10233c001e4090000080fb009e0890000080400032
:10234c00104078000082fb008002eb006033b80084
:10235c001e4090000080fb000000e8009e089000ea
:10236c0000804000104078000080fb008000eb00f3
:10237c006011b800c819dd004814de008301740038
:10238c004811dd00480cde0002017400c808dd00b5
:10239c004804de00810074004800dd0000044200a7
:1023ac0081844a0002054b0083854b001e4090003f
:1023bc000080fb000080e8009e0890000080400038
:1023cc00104078000080fb008000eb006011b8002a
:1023dc008201780001017800800078000000eb0099
:1023ec000002440081824c0002034d0083834d00a7
:1023fc001e4090000080fb00630040009e0890008f
:10240c0000804000104078000080fb008000eb0052
:10241c006011b800c811dd00480cde0083017400a7
:10242c004809dd004804de0002017400c800dd002c
:10243c000000eb000004420081844a0002054b00be
:10244c0083854b001e4090000080fb006400400020
:10245c009e08900000804000104078000080fb0037
:10246c008000eb006011b8000001be006000b800f5
:10247c000002440081824c0002034d0083834d0016
:10248c001e4090000080fb00650040009e089000fc
:10249c0000804000104078000080fb008000eb00c2
:1024ac006011b800c809dd004804de008301740027
:1024bc004801dd006000b8000004420081844a003d
:1024cc0002054b0083854b001e4090000080fb00f2
:1024dc00660040009e08900000804000104078008c
:1024ec000080fb008000eb006011b80080017800d8
:1024fc000001eb006000b8000002440081824c0037
:10250c0002034d0083834d001e4090000080fb00b1
:10251c00670040009e08900000804000104078004a
:10252c000080fb008000eb006011b800c801dd00ea
:10253c000001eb006000b8000000420081804a00fe
:10254c0002014b0083814b000e0a90000012980090
:10255c0011129800221298003312980002003700d2
:10256c0010c0b3007b0037007e4890000004e000f0
:10257c000a003a000e089000a070900000c2b30050
:10258c0080c070000e089000217098001e409000d2
:10259c006440400010479800040037009e409000b3
:1025ac006e48900000c04000104798001e409000fc
:1025bc000080fb009e0890000080400010407800d6
:1025cc000081fb008001eb001e4090000080fb00ae
:1025dc000000e8009e089000008040001040780049
:1025ec000082fb008002eb004828dd00c820de00e2
:1025fc00810070004820dd0002014000838148000a
:10260c001e4090000080fb000080e8009e089000b7
:10261c0000804000104078000080fb008000eb0040
:10262c00c000dd0000002000020140008381480052
:10263c001e4090000080fb00630040009e0890004c
:10264c0000804000104078000080fb008000eb0010
:10265c00c800dd000000200002004000838048001c
:10266c000e09900020219800312198000e0890004e
:10267c00b020900020209000511307000e0990000c
:10268c0070219800012998001e4090006440400081
:10269c00104798001e4090000080fb009e089000a0
:1026ac0000804000104078008080fb000e089000f5
:1026bc00312898001e4090000040e8001047980018
:1026cc00ce5090001e40900080cf50000f0036007e
:1026dc001e4090000080fb009e089000008040008f
:1026ec0010407800e14f50000f003a000e089000a7
:1026fc00170307000e0a9000401298005112980020
:10270c006212980073129800070037000e089000b0
:10271c000f0307000e0a9000401298005112980007
:10272c0062129800731298001e0890000000e800d6
:10273c00904078000e089000317898001e089000a8
:10274c00104078008080fb000e0890002118980043
:10275c000040eb004f05be004f04be000080fa00a5
:10276c00000006000600fa001007980021079800e8
:10277c000000eb00000f78001e0078000080fa00cb
:10278c00000006008e00fa00881f78002087980051
:10279c00348798004587980056879800678798007b
:1027ac002e809000207090006f40600010479800c1
:1027bc002e809000207090000044b20020479800ba
:1027cc000040eb00004f78002e4090000004e00029
:1027dc00b70032001e4090000080fb00e40f500058
:1027ec0003003200e80f50004d003200d4023700d5
:1027fc002e8090008002b0001001be0022079800cd
:10280c00330798002e8090000002b0001002be002a
:10281c004407980055079800600820000e004000ff
:10282c001003be0066079800770798002e80900072
:10283c0030289000e10f50001c003a0018c0b30083
:10284c004e019000de0190002e009000be00900022
:10285c001ff807000000e000010035000044eb0009
:10286c000804e0000e00320018c0b3004e019000c6
:10287c00de0190006e009000fe00900016f807003c
:10288c000000e00001003d000044eb000804e00003
:10289c000300320010c0b300004f7800a8023700cc
:1028ac000040eb00004f7800a502370018c0b300c1
:1028bc004e019000de0190002e009000be009000b2
:1028cc0005f807000000e00001003c000044eb00ac
:1028dc000804e0000f00320018c0b3004e01900055
:1028ec00de0190006e009000fe009000f8f70700eb
:1028fc000000e000010034000044eb000804e0009c
:10290c000400320010c0b300004f7800000000003b
:10291c008b0237000040eb00004f78008802370034
:10292c002e8090008002b0003002be002003be005a
:10293c00040f9800150f9800260f9800370f980079
:10294c002e8090000002b0003002be002003be00ba
:10295c00440f9800550f9800660f9800770f980059
:10296c00600820000e0040003002be002003be00b4
:10297c000417980015179800261798003717980019
:10298c002e80900030289000e10f500024003a0077
:10299c0018c0b3004e0a9000de0a90006e0b900037
:1029ac00fe0b90000e0890009e0890002e099000df
:1029bc00be099000bcf707000000e00001003500e4
:1029cc000044eb000804e0001200320018c0b30011
:1029dc004e0a9000de0a90006e0b9000fe0b9000e9
:1029ec000e1090009e1090002e119000be119000c1
:1029fc00b2f707000000e00001003d000044eb00ce
:102a0c000804e0000300320010c0b300004f78004f
:102a1c004b0237000040eb00004f780048023700b3
:102a2c0018c0b3004e0a9000de0a90006e0b9000a6
:102a3c00fe0b90000e0890009e0890002e0990004e
:102a4c00be0990009df707000000e00001003c006b
:102a5c000044eb000804e0001200320018c0b30080
:102a6c004e0a9000de0a90006e0b9000fe0b900058
:102a7c000e1090009e1090002e119000be11900030
:102a8c0089f707000000e000010034000044eb006f
:102a9c000804e0000300320010c0b300004f7800bf
:102aac00270237000040eb00004f7800240237006b
:102abc002e809000207090000042b200006f9800b1
:102acc000e6890000004e0000f0132001e409000e0
:102adc000080fb00e20f50003b003200e20f500080
:102aec0003003c00e10f50000600320014023700d6
:102afc00e40f500065003200e80f5000a4003200d3
:102b0c000f0237002e809000d010900060119000c2
:102b1c00f011900040109000106f98002e809000e3
:102b2c009010900020119000b011900000109000b7
:102b3c00206f98003e809000ce8090005e819000c7
:102b4c00ee819000306f98002e809000302890001d
:102b5c00e10f50000e003a009e6890002e68900025
:102b6c0080cf500007003d00be6890002e6890009a
:102b7c0080cf50000300350010c0b300004f780028
:102b8c00ef0137000040eb00004f7800ec013700fc
:102b9c009e6890002e68900080cf50000700340093
:102bac00be6890002e68900080cf500003003c005f
:102bbc0010c0b300004f7800e10137000040eb007b
:102bcc00004f7800de0137002e809000d01090006e
:102bdc0060119000f0119000401090006017980068
:102bec002e8090009010900020119000b011900059
:102bfc0000109000701798003e809000ce809000de
:102c0c005e819000ee819000001f98002e80900055
:102c1c0030289000e10f50000e003a00ee109000aa
:102c2c007e109000808f500007003d008e189000a1
:102c3c007e109000808f50000300350010c0b30050
:102c4c00004f7800be0137000040eb00004f7800c9
:102c5c00bb013700ee1090007e109000808f50006a
:102c6c00070034008e1890007e109000808f50006a
:102c7c0003003c0010c0b300004f7800b0013700d7
:102c8c000040eb00004f7800ad0137002e80900023
:102c9c00d010900060119000f01190004010900046
:102cac00101f9800211f98002e809000901090000b
:102cbc0020119000b011900000109000301f98006f
:102ccc00411f98003e809000ce8090005e81900065
:102cdc00ee819000501f9800611f98002e8090008c
:102cec0030289000e10f500014003a001e1990009b
:102cfc00ae1990003e189000ce189000800f510035
:102d0c00818f59000a003d005e199000ee19900069
:102d1c003e189000ce189000800f5100818f590002
:102d2c000300350010c0b300004f78008401370059
:102d3c000040eb00004f7800810137001e19900015
:102d4c00ae1990003e189000ce189000800f5100e4
:102d5c00818f59000b0034005e199000ee19900021
:102d6c003e189000ce189000800f5100818f5900b2
:102d7c0004003c0010c0b300004f780000000000bd
:102d8c006f0137000040eb00004f78006c013700fa
:102d9c002e809000d010900060119000f0119000e7
:102dac0040109000701f980001279800122798007f
:102dbc00232798002e8090009010900020119000f6
:102dcc00b011900000109000302798004127980017
:102ddc0052279800632798003e809000ce80900088
:102dec005e819000ee81900070279800012f980072
:102dfc00122f9800232f98002e80900030289000de
:102e0c00e10f500020003a007e1a90008e229000b4
:102e1c001e239000ae2390003e209000ce20900008
:102e2c005e219000ee2190000020e10001a8e1005d
:102e3c0002b0e10003b8e10010003d007e229000da
:102e4c008e2a90001e2b9000ae2b90003e209000fe
:102e5c00ce2090005e219000ee2190000020e10039
:102e6c0001a8e10002b0e10003b8e1000300350065
:102e7c0010c0b300004f7800310137000040eb0068
:102e8c00004f78002e0137007e1a90008e229000a1
:102e9c001e239000ae2390003e209000ce20900088
:102eac005e219000ee2190000020e10001a8e100dd
:102ebc0002b0e10003b8e100100034007e22900063
:102ecc008e2a90001e2b9000ae2b90003e2090007e
:102edc00ce2090005e219000ee2190000020e100b9
:102eec0001a8e10002b0e10003b8e10003003c00de
:102efc0010c0b300004f7800110137000040eb0008
:102f0c00004f78000e0137001e4090000080fb003f
:102f1c00e20f50003b003200e20f500003003c0077
:102f2c00e10f50000600320005013700e40f50009d
:102f3c0065003200e80f5000a3003200000137009a
:102f4c002e809000d010900060119000f011900035
:102f5c004010900060d798002e8090009010900048
:102f6c0020119000b01190000010900070d79800c4
:102f7c003e809000ce8090005e819000ee819000ab
:102f8c0000df98002e80900030289000e10f500058
:102f9c000e003a00eed090007ed0900080cf500012
:102fac00070031008ed890007ed0900080cf50006a
:102fbc000300390010c0b300004f7800e000370068
:102fcc000040eb00004f7800dd003700eed09000a1
:102fdc007ed0900080cf5000070036008ed8900035
:102fec007ed0900080cf500003003e0010c0b30094
:102ffc00004f7800d20037000040eb00004f780003
:10300c00cf0037002e809000d010900060119000ff
:10301c00f011900040109000502f98002e809000de
:10302c009010900020119000b011900000109000b2
:10303c00602f98003e809000ce8090005e819000c2
:10304c00ee819000702f98002e8090003028900018
:10305c00e10f50000e003a00de2890006e28900020
:10306c00808f500007003100fe2890006e289000e1
:10307c00808f50000300390010c0b300004f78005f
:10308c00af0037000040eb00004f7800ac00370079
:10309c00de2890006e289000808f500007003600cc
:1030ac00fe2890006e289000808f500003003e0098
:1030bc0010c0b300004f7800a10037000040eb00b7
:1030cc00004f78009e0037002e809000d0109000aa
:1030dc0060119000f01190004010900000379800a3
:1030ec00113798002e8090009010900020119000c5
:1030fc00b0119000001090002037980031379800e4
:10310c003e809000ce8090005e819000ee81900019
:10311c0040379800513798002e809000302890004e
:10312c00e10f500014003a000e3190009e319000d7
:10313c002e309000be309000800f5100818f5900ce
:10314c000a0031004e319000de3190002e3090009c
:10315c00be309000800f5100818f59000300390060
:10316c0010c0b300004f7800750037000040eb0032
:10317c00004f7800720037000e3190009e319000a5
:10318c002e309000be309000800f5100818f59007e
:10319c000a0036004e319000de3190002e30900047
:1031ac00be309000800f5100818f590003003e000b
:1031bc0010c0b300004f7800610037000040eb00f6
:1031cc00004f78005e0037002e8090004012900077
:1031dc00d012900060139000f013900064379800a8
:1031ec0075379800063f9800173f98002e80900086
:1031fc00001290009012900020139000b0139000d9
:10320c00243f9800353f9800463f9800573f980060
:10321c003e829000ce8290005e839000ee83900000
:10322c00643f9800753f98000687980017879800b0
:10323c002e80900030289000e10f500020003a00c2
:10324c006e329000fe3290000e3b90009e3b900040
:10325c002e389000be3890004e399000de39900028
:10326c000020e10001a8e10002b0e10003b8e10098
:10327c00100031006e3a9000fe3a90000e839000e0
:10328c009e8390002e389000be3890004e399000ee
:10329c00de3990000020e10001a8e10002b0e1005d
:1032ac0003b8e1000300390010c0b300004f7800f0
:1032bc00230037000040eb00004f7800200037005f
:1032cc006e329000fe3290000e3b90009e3b9000c0
:1032dc002e389000be3890004e399000de399000a8
:1032ec000020e10001a8e10002b0e10003b8e10018
:1032fc00100036006e3a9000fe3a90000e8390005b
:10330c009e8390002e389000be3890004e3990006d
:10331c00de3990000020e10001a8e10002b0e100dc
:10332c0003b8e10003003e0010c0b300004f78006a
:10333c00030037000040eb00004f78000000000055
:10334c001e4078004f0478000080fa000000060050
:10335c000c00fa00500798005e009000207090005e
:10336c006f406000004f98000e4890000080fb00fa
:10337c00e20f500013003200e20f500003003c003b
:10338c00e10f50000600320024003700e40f50001b
:10339c0014003200e80f5000190032001f003700f3
:1033ac005e00900000189000104078000080fb0038
:1033bc008000eb006011b800009fbe000297be00b9
:1033cc00160037005e009000001890001000780086
:1033dc008000eb006011b800009fbe000297be0099
:1033ec000e0037005e009000001890001000be0028
:1033fc006011b800009fbe000297be0007003700a6
:10340c005e009000001890003002be002003be0049
:10341c00049fbe000697be00000000003e00be00e8
:10342c002e01be000080fa00000006000400fa0025
:10343c00100798000040eb00004f78000040eb00b4
:10344c00104798001e0090005008900080017800f2
:10345c001e009000c01890003018900000017800f9
:10346c00828141001e81fb001e0290000201e800d7
:10347c0002014100020142001201780002027800b0
:10348c001e4190000281fb000201420012417800b3
:10349c008249780061004000e08048001e019000e5
:1034ac0030199800411998001e4090000040e80027
:1034bc00104798001e80fb009e0090007200400098
:1034cc0000804000904078001e40900080cf50005b
:1034dc00dcff3e001e4fe8001e009000307890008c
:1034ec009e4f5000d5ff3e000080fa000000060001
:1034fc000800fa0020079800310798000000eb0044
:10350c00000f7800010037001e0fe8001e00780045
:10351c00ec00b900ae0090000080400090007800f4
:10352c003e009000808f5000070032001e00780093
:10353c00ec00b900ae009000008040001000780054
:10354c000000e000f0ff3a001e007800ec00b9002b
:10355c00ae00900000804000100078000000e000f9
:10356c0003003a000000eb0010079800050037003c
:10357c001e007800ec00b900ae0090000080400006
:10358c00100798001e0090000080fa000000060052
:10359c000800fa0020079800310798002e009000d0
:1035ac000000e00003003a000000eb00000f780080
:1035bc00250037000000eb001007980003003700cf
:1035cc001e0090000000e800100798001e009000fc
:1035dc004200dd00ae0090000080400090007800ba
:1035ec003e009000808f5000070032001e009000bb
:1035fc004200dd00ae00900000804000100078001a
:10360c000000e000eeff3a001e0090004200dd00da
:10361c00ae00900000804000100078000000e00038
:10362c0003003a000000eb00000f780006003700a2
:10363c001e0090004200dd00ae00900000804000b3
:10364c0090009000010f78001e0078000080fa00b6
:10365c00000006000200fa00000f78001e0078003f
:10366c0021c0b300414098001e007800300090004b
:10367c000000e80011c2b300014878001e00780079
:10368c00900090001e007800010001000080fa00fc
:10369c00000006000400fa00000f78002147980093
:1036ac001e00780021c0b300414098001e00780035
:1036bc00300090000000e800ae4090000148780017
:1036cc001e007800900090001e00780001000100a0
:1036dc000080fa00000006000800fa00300798008d
:1036ec003e009000d0409000d0c2b30080cf50007c
:1036fc0004003e0051c1b3003e009000e5ff0700fe
:10370c005a0137003e009000e1c2b30041409800de
:10371c003e009000300090000000e8008040eb007c
:10372c00014878003e009000300090000080e800d6
:10373c0051c0b300014878003e009000300090006a
:10374c00630040008040eb00014878003e00900090
:10375c003000900064004000d18a8000a1089000e5
:10376c0081407800014878003e00900030009000c5
:10377c0065004000d18a8000a1089000c808de00d6
:10378c0081407800014878003e00900030009000a5
:10379c0066004000be009000d140900001487800c7
:1037ac003e009000300090006700400001c1b30063
:1037bc00014878003e009000300090006800400006
:1037cc0021c8b300014878003e0090003000900002
:1037dc0069004000d1c4b300014878003e0090005d
:1037ec00300090006a00400011c6b3000148780018
:1037fc003e009000300090006b00400021c7b300e9
:10380c00014878003e009000300090006c004000b1
:10381c0001c2b300014878003e00900030009000d7
:10382c006d00400011c3b300014878003e009000c9
:10383c00300090006e00400021c3b30001487800b6
:10384c003e009000300090006f00400001c3b300b8
:10385c00014878003e00900030009000700040005d
:10386c0011c3b300014878003e0090003000900076
:10387c007100400071c3b300014878003e00900015
:10388c00300090007200400011c3b3000148780072
:10389c003e009000300090007300400071c3b300f4
:1038ac00014878003e009000300090007400400009
:1038bc0041c3b300014878003e00900030009000f6
:1038cc007500400091c3b30001487800d08a800095
:1038dc00300890000000e00011003a00c0c0b300b6
:1038ec00004f78003e009000b00090001e80fb005e
:1038fc007600400000804000d1c2b300014878003f
:10390c001e80fb000000ea004f00de000040780043
:10391c001e4fe9000004e000f2ff3a006700370098
:10392c003e0090003000900076004000d18a80006c
:10393c00b108900091407800014878003e0090005a
:10394c003000900077004000d18a8000b1089000d0
:10395c008100e80091407800014878003e0090001a
:10396c003000900078004000d18a8000b1089000af
:10397c008180e80091407800014878003e0090007a
:10398c003000900079004000d18a8000b10890008e
:10399c00e480400091407800014878003e0090009f
:1039ac00300090007a004000d18a8000b10890006d
:1039bc00e580400091407800014878003e0090007e
:1039cc00300090007b004000d18a8000b10890004c
:1039dc00e780400091407800014878003e0090005c
:1039ec00300090007c004000d18a8000b10890002b
:1039fc00e880400091407800014878003e0090003b
:103a0c00300090007d004000d18a8000b108900009
:103a1c00e980400091407800014878003e00900019
:103a2c00300090007e004000d18a8000b1089000e8
:103a3c00ea80400091407800014878003e009000f8
:103a4c00300090007f004000d18a8000b1089000c7
:103a5c00eb80400091407800014878003e009000d7
:103a6c00300090000002b000d18a8000b1089000b4
:103a7c00ec80400091407800014878003e009000b6
:103a8c00300090001002b000d18a8000b108900084
:103a9c00ee80400091407800014878003e00900094
:103aac00300090002002b000d18a8000b108900054
:103abc00ef80400091407800014878003e00900073
:103acc00300090003002b000d18a8000b10090002c
:103adc0081407800014878003e0090003000900052
:103aec004002b000d18a8000c10090008140780073
:103afc00014878003e009000300090005002b00069
:103b0c00d18a8000c1009000c808de008140780096
:103b1c00014878003e0090003000900062022000c6
:103b2c0000014100d08a8000e0009000500090001d
:103b3c0000407800004978003e0090003000900072
:103b4c007202200000014100d08a8000e000900049
:103b5c0050009000c809dd004800de0000807100b4
:103b6c00c808de0000407800004978003e00900054
:103b7c00300090008202200000014100d08a8000b9
:103b8c00e0009000500090004008de0000407800fb
:103b9c00004978003e009000300090009202200016
:103bac0000014100d08a8000e0009000500090009d
:103bbc004808de000040780000497800d08a800078
:103bcc00cf80de0010079800210798003e0090007f
:103bdc0030009000a002b0009e0090008140780060
:103bec00014878003e00900030009000b2022000a6
:103bfc00000141001e009000ae009000c809dd00dd
:103c0c004800de0000807100c808de00004078002b
:103c1c00004978003e00900030009000c202200065
:103c2c00000141001e009000ae0090004008de0034
:103c3c0000407800004978003e0090003000900071
:103c4c00d2022000000141001e009000ae00900046
:103c5c004808de0000407800004978003e009000e3
:103c6c00900090003e009000010001000080fa00de
:103c7c00000006000c00fa00500798005e0090004f
:103c8c00300090000080e800104078000080fb00bd
:103c9c00c800dd005e009000300090000000e800dd
:103cac00104078000080fb00008040001007980056
:103cbc00d08a800010007800e800470001017800ed
:103ccc009e0090007b010700200798000e48900092
:103cdc000004e000050032000e489000804078009f
:103cec005e0090006bfe070087003700d08a8000d2
:103cfc00200090000000e000330032000000eb00d8
:103d0c00000f7800010037001e0fe800d08a8000f9
:103d1c00a00090001e0078004200dd0000804000f2
:103d2c00900078001e009000808f50000800320038
:103d3c00d08a8000a00090001e0078004200dd00b8
:103d4c0000804000100078000000e000eeff3a0018
:103d5c00d08a8000a00090001e0078004200dd0098
:103d6c0000804000100078000000e00016003200d7
:103d7c00d08a8000a00090001e0078004200dd0078
:103d8c0000804000900190005e0090004040900048
:103d9c00e34050005e009000300090006300400053
:103dac0001417800800078002e0090000300010093
:103dbc000004e0005300320021c4b3005e00900008
:103dcc0034fe070050003700d08a800010009000ad
:103ddc000000e00004003a0041c4b3005e00900013
:103dec002cfe0700480037002e0090009000780051
:103dfc00310798000000eb00000f7800010037003d
:103e0c001e0fe800d08a8000900090001e00780001
:103e1c00ec00b90000804000900078003e0090005b
:103e2c00808f500008003200d08a800090009000f3
:103e3c001e007800ec00b9000080400010007800f3
:103e4c000000e000eeff3a00d08a80009000900065
:103e5c001e007800ec00b9000080400010007800d3
:103e6c000000e00004003a0011c4b3005e009000b2
:103e7c0008fe070024003700d08a800090009000d4
:103e8c001e007800ec00b90000804000c0019000da
:103e9c005e00900040409000e34050005e009000b7
:103eac0030009000630040000141780080007800f1
:103ebc002e009000030001000004e000040032001a
:103ecc0041c1b3005e009000f2fd07000e00370008
:103edc005e00900021c0b300414098005e0090004d
:103eec00300090000000e8008040eb0001487800b2
:103efc005e009000900090005e00900001000100b8
:103f0c0001003700000000000080fa0000000600ed
:103f1c000c00fa00500798005e00900030009000f2
:103f2c000080e800104078000080fb00c800dd0035
:103f3c005e009000300090000000e8001040780017
:103f4c000080fb000080400010079800d08a8000a1
:103f5c0010007800e8004700010178009e009000f6
:103f6c00d4000700200798000e4890000004e000e1
:103f7c00050032000e489000804078005e009000f2
:103f8c00c4fd070044003700d08a80001000900068
:103f9c000000e00004003a0041c4b3005e00900051
:103fac00bcfd07003c0037002e009000900078000c
:103fbc00310798000000eb00000f7800010037007b
:103fcc001e0fe800d08a8000900090001e00780040
:103fdc00ec00b90000804000900078003e0090009a
:103fec00808f500008003200d08a80009000900032
:103ffc001e007800ec00b900008040001000780032
:10400c000000e000eeff3a00d08a800090009000a3
:10401c001e007800ec00b900008040001000780011
:10402c000000e00004003a0011c4b3005e009000f0
:10403c0098fd070018003700d08a8000900090008f
:10404c001e007800ec00b9000080400030019000a8
:10405c005e009000300090000080e8008000780046
:10406c002e0090000200010080c0e8005e0090006d
:10407c00414098005e009000300090000000e80085
:10408c008040eb00014878005e00900090009000aa
:10409c005e009000010001000080fa0000000600a4
:1040ac000400fa00100798000040eb00004f780065
:1040bc001e009000300090000000e80010407800d6
:1040cc000080fb00e20f500016003200e20f50009f
:1040dc0005003c000000e0000a003200e10f500037
:1040ec000c0032001f003700e40f500015003200a6
:1040fc00e40f50000f003500e50f500015003200a2
:10410c0018003700d08a80008000eb003100980046
:10411c0017003700d08a8000110020003100980071
:10412c0013003700d08a8000210020003100980055
:10413c000f003700d08a8000310020003100980039
:10414c000b003700d08a800041002000310098001d
:10415c0007003700d08a8000510020003100980001
:10416c000300370020c2b300004f780000000000ad
:10417c001e009000300090000000e8001e487800ff
:10418c001e00900021c0b300414098001e0090001a
:10419c00900090001e009000010001000080fa00c9
:1041ac00000006000200fa00000f78001e007800e4
:1041bc00300090000000e8008040eb0001487800df
:1041cc001e007800300090000080e800d18a80004a
:1041dc00b100900081407800014878001e00780002
:1041ec0031c0b300414098001e0078009000900050
:1041fc001e007800010001000080fa00000006009b
:10420c000400fa00100798000000eb00000f780083
:10421c00070037001e007800800040006043220039
:10422c000080400001b32100010878001e0fe80057
:10423c001e007800fa0f5000f6ff36001e009000aa
:10424c0061432200410098000080fa000000060043
:10425c000400fa00100798001e0090004000900027
:10426c00000f78001e00780021b7210001087800ab
:10427c001e80e800810d2200010878009e00780065
:10428c006480400061052200010878004102200092
:10429c001e80400001e4210001087800210220006a
:1042ac001e804000e1f82100010878000080fa002f
:1042bc00000006000a00fa00200798003107980059
:1042cc00420798002e0090000000e00006003a0023
:1042dc000000eb00000f78004e00900031c4b300da
:1042ec00014878002b0037000000eb001007980005
:1042fc00030037001e0090000000e8001007980033
:10430c001e0090004200dd00ae00900000804000d6
:10431c00900078003e009000808f50000700320023
:10432c001e0090004200dd00ae00900000804000b6
:10433c00100078000000e000eeff3a001e00900034
:10434c004200dd00ae0090000080400010007800bc
:10435c000000e00006003a000000eb00000f7800bf
:10436c004e00900001c4b3000148780009003700ea
:10437c001e0090004200dd00ae0090000080400066
:10438c0090009000010f78004e0090008040eb00f0
:10439c00014878001e0078000080fa00000006003a
:1043ac000000fa000000eb00502089003831ef00cb
:1043bc003a31ef003c31ef003e31ef004071ef003d
:1043cc00e041220011c0b300014878004171ef00b8
:1043dc000080fa00000006000000fa0040d1bf0087
:1043ec00ea4f500006003e00e0898000f189800011
:1043fc0061004000e0804800e0898800f189880075
:10440c00e2898000f389800000e224000100200092
:10441c00800f5100818f590005003a003c31ef00ac
:10442c003e31ef0040d1bf000040e80040f1b70042
:10443c00321581004315810040d1bf000080fb0084
:10444c000142220000804000104078000080fb00f8
:10445c008000eb000200400083804800301589008a
:10446c00411589000080fa00000006000000fa00e7
:10447c002115810030062000808f500004003c0084
:10448c00201581000000e800201589001d00370070
:10449c00d014810080007800e02081000080500062
:1044ac0010158900101581000000e00005003d008a
:1044bc00d11481000015810000804000d0148900c7
:1044cc0005003700d014810080007800f01f8100b7
:1044dc0000805000d014890010158100ecf007000a
:1044ec00800078000015810000004000808f500093
:1044fc0002003d00e0208100d01489000000eb0098
:10450c00201589000080fa00000006000000fa0067
:10451c00c2898000d3898000500020000100200057
:10452c00800f5100818f59000d003a003831ef0097
:10453c003a31ef0051208100402081000080400082
:10454c005020890051208100708d2100808f5000f7
:10455c0009003600708d21005020890006003700bc
:10456c00c0898000d189800061004000e080480053
:10457c00c0898800d18988000080fa0000000600fc
:10458c000000fa00101880008000780020188000cd
:10459c00022b220069100700c015810070168900db
:1045ac00d0158100801689000080fa0000000600fa
:1045bc000c00fa00000f78001407980025079800eb
:1045cc003607980047079800214f98001e0090006e
:1045dc009e0f5000030031009e009000010f7800e8
:1045ec00200037002e0090009e0f50000300360074
:1045fc00ae009000010f78001a0037002e48900092
:10460c000004e0000a003a004e0090009e0f50009b
:10461c00030036009e007800410798000400370024
:10462c00ce0090003e0090000080400040079800b3
:10463c002e489000e14f50000a003a004e009000c6
:10464c009e0f5000030031009e0078004107980037
:10465c0004003700ce0090003e0090000080500017
:10466c00400798000080fa00000006000000fa00e5
:10467c00d0208100e20f500008003a000020810099
:10468c00e0208900d0198100800078000020810092
:10469c00808f500001003e003b0007000080fa00b4
:1046ac00000006000000fa000051a9000000eb0019
:1046bc00f01489000000eb00e01489000000eb000e
:1046cc00501889000000eb00601889000000eb0016
:1046dc00701889000000eb00801889000000eb00c6
:1046ec00a01889000000eb00c01889000000eb0046
:1046fc00d01889000000eb00e01889000000eb00e6
:10470c00f01889000000eb00001989000000eb0094
:10471c00101989000000eb00201989000000eb0043
:10472c00501989000000eb00601989000000eb00b3
:10473c00b01989000000eb00c01989000000eb00e3
:10474c00501589006000b8003015890041158900aa
:10475c000080fa00000006000000fa0042d1bf0001
:10476c000004e00004003a0010c0b30042f1b700ae
:10477c0034aea900020037004271ef0034aea8003d
:10478c000080fa00000006000000fa0021a8a90031
:10479c00f015200030638800f0152000306288008e
:1047ac00f015200030618800fd0b07000011a900f6
:1047bc000000eb00d01489000031a8000071a900a2
:1047cc000051a8000000eb00d0208900be000700bb
:1047dc00a03022002c070700270d070001a8a90014
:1047ec0021a8a8000080fa00000006000200fa00d0
:1047fc00889fbe0000888000620060000000e0001e
:10480c002100320000888000640060000000e0009d
:10481c0001003200a3ff07003cff0700502081007d
:10482c00d0148900d0148100f0148900d088800045
:10483c0020178900f01481001017890021178100be
:10484c0010178100c3112100422d2200120f070006
:10485c00e0888000b0888800c0888000b01789008c
:10486c00e0148100a0178900b1178100a017810006
:10487c00e3112100622e2200070f0700f088800050
:10488c00a08888004b003700f8fe070000888000e5
:10489c00640060000000e000090032000051a90033
:1048ac00f0148100cf80de00c000dd00000020008d
:1048bc00c0178900d1178900a08c2000d014890062
:1048cc00d019810040188900d0148100301889005b
:1048dc00411881003018810003122100822f220020
:1048ec00ed0e070000898000f0148900f01481009f
:1048fc000000e00002003d000000eb00f014890015
:10490c00d0148100e2ef0700a30c0700e01489002b
:10491c00c0888000b0178900e0148100a0178900be
:10492c00b1178100a0178100e3112100622e220033
:10493c00d90e0700f0888000a0888800f1888000dc
:10494c00f08880000180b9004109dd004f04de00d1
:10495c0008047100cf8cde0008007800000f78008e
:10496c001e00780001d7270000805000000f78004f
:10497c001e007800a00d0700f0168900f0168100cb
:10498c000000ea0000178900d088800020178900f9
:10499c00f014810010178900211781001017810075
:1049ac00c3112100422d2200bb0e0700e0888000bd
:1049bc00b08888004f04be000080fa00000006009a
:1049cc000000fa00881f78000088800062006000f8
:1049dc000000e0002700320051158100f06a23002e
:1049ec00808f500004003e00501581000000e8004c
:1049fc0050158900140037003015810041158100d5
:104a0c00b7ef070018c0b300f2282c00539f240006
:104a1c00afef07000000e000010035000044eb00a0
:104a2c000804e000020032006bfe070006003700ad
:104a3c000051a8000031a90021888000b019810024
:104a4c0000805000208988003015810041158100bc
:104a5c004209dd004e00de0000007100ce08de00d1
:104a6c00800078002088800000804000208888002a
:104a7c00120037002089800000f0a7000000ea0037
:104a8c00e90f50000d003400108980000000e00098
:104a9c000a003a00208980000000e00004003d007c
:104aac0020898000690040002089880003003700bd
:104abc002089800069005000208988004f0478000c
:104acc000080fa00000006000000fa00000024003c
:104adc00e0158900000024008015890000002400e6
:104aec00a015890010002000001589004006200048
:104afc00201589002231ef00c0da200030888800b0
:104b0c0090992100501789003033210060178900db
:104b1c00e0fd270070178900f0ff2700801789003f
:104b2c00801781000000ea00901789006000b8002f
:104b3c0030178900411789001e31ef0080142000c6
:104b4c00c016890080142000d0168900c0cc240027
:104b5c00e0168900f0ff2700f0168900f01681009e
:104b6c000000ea00001789006000b800a016890058
:104b7c00b11689001c31ef00d0cc2000e017890061
:104b8c0010022000f0178900c0cc24000018890006
:104b9c000000270010188900101881000000ea009e
:104bac00201889006000b800c0178900d11789004f
:104bbc002031ef000080fa00000006000e00fa0021
:104bcc0050079800610798006000b800008fbe0085
:104bdc006000b80020079800310798000000eb0037
:104bec004007980001a8a90021a8a8000000eb002c
:104bfc0040079800140037002c31ef000000000033
:104c0c00608980000000e000fdff32002018800069
:104c1c00cf80de001e0f40005e9748001018800009
:104c2c00cf80de002e039000be03900006004000f3
:104c3c008780480020079800310798004e009000ac
:104c4c000000e80040079800ce009000f00720001c
:104c5c00808f5000e8ff36001e0078009e00900008
:104c6c004909dd004702de0004027100c78ade003c
:104c7c00840078005e009000010878002e009000ff
:104c8c00be009000490add004701de0002017200ff
:104c9c00c789de00820078006e0090000108780061
:104cac002c31ef0021a8a9000080fa0000000600ba
:104cbc000000fa00aa0a0700612b2200202b220018
:104ccc00beff0700120f0700680a070044e0a800a7
:104cdc0044c0a8004480a80044e0a9009efe070040
:104cec000080fa00000006000000fa009afe07009f
:104cfc00650ea80074ff0700a0302200e205070033
:104d0c00dd0b0700a0fe07000080fa000000060083
:104d1c000000fa00130a07000004e0000e00320045
:104d2c0000888000610060000000e0000400320098
:104d3c009bfd070020002000d020890006003700d2
:104d4c008e0a07000011a80010002000d020890056
:104d5c00c05d20006f0007000080fa000000060014
:104d6c000000fa00d0208100e10f500038003a001a
:104d7c00090a07000004e00035003200e04122007f
:104d8c0010407800e14f500019003a0041d1bf00ab
:104d9c00e44f500004003a00e04122008040eb0058
:104dac00014878000b00370041d1bf000040e800fb
:104dbc0041f1b70041d1bf000080fb0080004000f2
:104dcc00c04222000080400010007800e500b900cd
:104ddc00e0208900e1208100c0208100808f5000fc
:104dec001b003100c0208100e02089001800370032
:104dfc0041d1bf000004e00004003a00e041220071
:104e0c0011c0b300014878000b00370041d1bf003e
:104e1c000040e90041f1b70041d1bf000080fb0028
:104e2c0080004000c042220000804000100078004a
:104e3c00e500b900e0208900e1208100b02081006c
:104e4c00808f500002003600b0208100e0208900e5
:104e5c000080fa00000006000400fa0071188100be
:104e6c00010f7800e1188100110798003e187800b6
:104e7c002e1078000080fa00000006000000fa00f6
:104e8c008289800093898000800c20000100200022
:104e9c00800f5100818f590009003a003031ef002a
:104eac003231ef00a0898000b189800061004000a0
:104ebc00e0804800a0898800b1898800060037008e
:104ecc00808980009189800061004000e08048006a
:104edc0080898800918988000080fa000000060013
:104eec000000fa00a0898000b18980000080fa00df
:104efc00000006000000fa00721681008316810083
:104f0c000288be0093168100230098000080fa00ee
:104f1c00000006000200fa00000f7800d02081008b
:104f2c00e10f500010003a001e007800e500b900b7
:104f3c00e0208900e1208100c0208100808f50009a
:104f4c0003003100c0208100e020890006003700fa
:104f5c00e1208100b0208100808f500002003600db
:104f6c00b0208100e02089000080fa0000000600db
:104f7c000000fa00d01981000080fa000000060041
:104f8c000200fa00000f78001e00780011002000cb
:104f9c00110898001e0078008000eb0001089800b2
:104fac000080fa00000006000200fa00000f7800f2
:104fbc001e0078008000eb00110898001e0078009d
:104fcc008000eb00710098000080fa0000000600e1
:104fdc000600fa0020079800d90037002e00900038
:104fec0000089000e20f500038003200e20f500031
:104ffc0005003e000000e0000a003200e10f500006
:10500c0019003200cb003700e40f50009b00320037
:10501c00e40f500046003900e50f5000a2003200aa
:10502c00c40037002e00900051c5b30041509800c9
:10503c002e0090008040eb00515098002e00900004
:10504c0050009000100178002e009000500090004d
:10505c0051c5b300020001002e0090001100200089
:10506c0001089800b60037002e009000c050900048
:10507c002e0090004040900080c040002e00900018
:10508c00415098002e0090005000900010017800c4
:10509c002e009000c04090002e0090005000900018
:1050ac00020001002e009000f00040002e00900045
:1050bc0040409000230020000101780080407800df
:1050cc002e009000780107009d0037002e00900004
:1050dc00c05090002e0090004048900080c04000ce
:1050ec002e009000415098002e009000500090002f
:1050fc00100178002e009000c04890002e00900007
:10510c0050009000020001002e009000f0004000c2
:10511c002e009000404890003300200001017800e0
:10512c00804078002e0090005f010700840037005b
:10513c002e009000b00090002e0090005050900077
:10514c000080fb0000804000ae0090003101900018
:10515c00ae009000d15090008180fb008100410096
:10516c0091407800014878002e009000c0509000cb
:10517c002e009000300190002e00900050509000b6
:10518c000080fb00000041001040780080c040000f
:10519c002e009000415098002e009000500090007e
:1051ac00100178002e009000b00090002e009000ae
:1051bc00505090000080fb00008040009040780030
:1051cc002e00900050009000020001002e00900074
:1051dc00505090000080fb008000e8002e009000f2
:1051ec00404090000080fb00808f50000f00350085
:1051fc002e009000f00040002e0090003001900036
:10520c002e009000505090000080fb0000004100e8
:10521c001040780053002000010178008040780095
:10522c002e009000200107000e0037002e00900089
:10523c00f00040002e009000300190002e009000f5
:10524c00505090000080fb0000004100104078009e
:10525c003300200001017800804078002e0090007f
:10526c00110107002e009000505090008040e80083
:10527c002e00900051509800310037002e00900005
:10528c0050009000100178002e009000500090000b
:10529c008040eb0002000100618a80002e0090002b
:1052ac0001089800260037002e009000c050900096
:1052bc002e009000415098002e009000c05090009d
:1052cc0050c5b30080cf5000040032002e00900077
:1052dc0040509000e24f500005003a002e00900024
:1052ec004050900080c0ea002e0090004150980081
:1052fc002e00900050009000100178002e009000bd
:10530c00c05090002e009000500090000200010050
:10531c002e00900050009000d00090002e009000c5
:10532c0050009000010001002e0090001eff0700ad
:10533c00030037002e0090001bff07000000000048
:10534c002e00900010089000e10f5000c1003a00b0
:10535c002e00900050009000b00090002e009000a5
:10536c0050009000010001000004e0001bff3a0017
:10537c00bd0037002e00900050009000900090006f
:10538c002e0090005000900001000100004f7800aa
:10539c002e00900070009000e20f500028003200a8
:1053ac00e20f500005003e000000e0000a00320051
:1053bc00e10f500013003200a2003700e40f500040
:1053cc005b003200e40f500032003900e50f500052
:1053dc006b0032009b00370050c5b3009e40780034
:1053ec0080cf50009d003a002e00900051c5b300b4
:1053fc00415098002e009000110020007100980080
:10540c00990037009e4078002e009000690107003b
:10541c000004e000930032002e009000f000900099
:10542c002e0090006e004000810178000001780091
:10543c009e4078002e0090009b0007008a003700e9
:10544c002e009000404890009e4f50000d003a00f6
:10545c002e009000405090009e4040002e00900086
:10546c00415098002e0090006e0040003300200048
:10547c00000178009e4078002e0090008a00070002
:10548c00790037002e0090008000eb00710098002e
:10549c00750037002e009000405090009e40400058
:1054ac002e009000415098002e009000b00090000b
:1054bc002e009000505090000080fb0000804000b7
:1054cc001e4878002e009000505090008040e8005c
:1054dc002e009000515098002e009000d05090005b
:1054ec002e0090004040900080cf50000800390002
:1054fc002e0090006e004000530020000001780048
:10550c009e4078002e009000670007005600370080
:10551c002e0090006e004000330020000001780047
:10552c009e4078002e0090005f0007004e00370070
:10553c001e4078000004e00004003a00618a8000fc
:10554c002e0090007100980047003700e1142100f4
:10555c009140780050c5b30080cf500004003a0051
:10556c009e4078002e009000120107003e0037008c
:10557c002e0090008000eb00710098003a0037007c
:10558c002e009000c05090002e00900041509800ca
:10559c002e009000c050900050c5b30080cf50003a
:1055ac00040032002e00900040509000e24f50005a
:1055bc0005003a002e0090004050900080c0ea0098
:1055cc002e009000415098002e009000405090000a
:1055dc009e4f500017003a002e00900030009000b3
:1055ec0010407800fa4f50000e003e002e00900044
:1055fc0040009000100798002e00900030009000a2
:10560c00104078000080fb00000040009e009000dd
:10561c0000804000900078002e00900001000100f6
:10562c00110037002e00900011c2b30019f80700ca
:10563c000d0037002e00900031c1b30015f80700a3
:10564c00090037002e0090008000eb0071009800dc
:10565c0005003700000000000300370000000000c8
:10566c0001003700000000002e0090001008900090
:10567c000000e00008003a002e009000500090005e
:10568c00a00090002e00900050009000010001003e
