:020000040000fa
:080000000002040000000000f2
:020000040000fa
:04000800620400008e
:020000040000fa
:04000c00620400008a
:020000040000fa
:040010006204000086
:020000040000fa
:040014006204000082
:020000040000fa
:04001800620400007e
:020000040000fa
:04001c00620400007a
:020000040000fa
:040020006204000076
:020000040000fa
:040024006204000072
:020000040000fa
:04002800620400006e
:020000040000fa
:04002c00620400006a
:020000040000fa
:040030006204000066
:020000040000fa
:040034006204000062
:020000040000fa
:04003800620400005e
:020000040000fa
:04003c00620400005a
:020000040000fa
:040040006204000056
:020000040000fa
:040044006204000052
:020000040000fa
:04004800620400004e
:020000040000fa
:04004c00620400004a
:020000040000fa
:040050006204000046
:020000040000fa
:040054006204000042
:020000040000fa
:04005800620400003e
:020000040000fa
:04005c007603000027
:020000040000fa
:040060006204000036
:020000040000fa
:040064006204000032
:020000040000fa
:04006800620400002e
:020000040000fa
:04006c00620400002a
:020000040000fa
:040070006204000026
:020000040000fa
:040074006204000022
:020000040000fa
:04007800620400001e
:020000040000fa
:04007c00620400001a
:020000040000fa
:040080006204000016
:020000040000fa
:040084006204000012
:020000040000fa
:04008800620400000e
:020000040000fa
:04008c00620400000a
:020000040000fa
:040090006204000006
:020000040000fa
:040094006204000002
:020000040000fa
:0400980062040000fe
:020000040000fa
:04009c0062040000fa
:020000040000fa
:0400a00062040000f6
:020000040000fa
:0400a40062040000f2
:020000040000fa
:0400a80062040000ee
:020000040000fa
:0400ac0062040000ea
:020000040000fa
:0400b00062040000e6
:020000040000fa
:0400b40062040000e2
:020000040000fa
:0400b80062040000de
:020000040000fa
:0400bc0062040000da
:020000040000fa
:0400c00062040000d6
:020000040000fa
:0400c40062040000d2
:020000040000fa
:0400c80062040000ce
:020000040000fa
:0400cc0062040000ca
:020000040000fa
:0400d00062040000c6
:020000040000fa
:0400d40062040000c2
:020000040000fa
:0400d80062040000be
:020000040000fa
:0400dc0062040000ba
:020000040000fa
:0400e00062040000b6
:020000040000fa
:0400e40062040000b2
:020000040000fa
:0400e80062040000ae
:020000040000fa
:0400ec0062040000aa
:020000040000fa
:0400f00062040000a6
:020000040000fa
:0400f40062040000a2
:020000040000fa
:0400f800620400009e
:020000040000fa
:0400fc00620400009a
:020000040000fa
:040100006204000095
:020000040000fa
:040104006204000091
:020000040000fa
:04010800620400008d
:020000040000fa
:04010c006204000089
:020000040000fa
:040110006204000085
:020000040000fa
:040114006204000081
:020000040000fa
:04011800620400007d
:020000040000fa
:04011c006204000079
:020000040000fa
:040120006204000075
:020000040000fa
:040124006204000071
:020000040000fa
:04012800620400006d
:020000040000fa
:04012c006204000069
:020000040000fa
:040130006204000065
:020000040000fa
:040134006204000061
:020000040000fa
:04013800620400005d
:020000040000fa
:04013c006204000059
:020000040000fa
:040140006204000055
:020000040000fa
:040144006204000051
:020000040000fa
:04014800620400004d
:020000040000fa
:04014c006204000049
:020000040000fa
:040150006204000045
:020000040000fa
:040154006204000041
:020000040000fa
:04015800620400003d
:020000040000fa
:04015c006204000039
:020000040000fa
:040160006204000035
:020000040000fa
:040164006204000031
:020000040000fa
:04016800620400002d
:020000040000fa
:04016c006204000029
:020000040000fa
:040170006204000025
:020000040000fa
:040174006204000021
:020000040000fa
:04017800620400001d
:020000040000fa
:04017c006204000019
:020000040000fa
:040180006204000015
:020000040000fa
:040184006204000011
:020000040000fa
:04018800620400000d
:020000040000fa
:04018c006204000009
:020000040000fa
:040190006204000005
:020000040000fa
:040194006204000001
:020000040000fa
:0401980062040000fd
:020000040000fa
:04019c0062040000f9
:020000040000fa
:0401a00062040000f5
:020000040000fa
:0401a40062040000f1
:020000040000fa
:0401a80062040000ed
:020000040000fa
:0401ac0062040000e9
:020000040000fa
:0401b00062040000e5
:020000040000fa
:0401b40062040000e1
:020000040000fa
:0401b80062040000dd
:020000040000fa
:0401bc0062040000d9
:020000040000fa
:0401c00062040000d5
:020000040000fa
:0401c40062040000d1
:020000040000fa
:0401c80062040000cd
:020000040000fa
:0401cc0062040000c9
:020000040000fa
:0401d00062040000c5
:020000040000fa
:0401d40062040000c1
:020000040000fa
:0401d80062040000bd
:020000040000fa
:0401dc0062040000b9
:020000040000fa
:0401e00062040000b5
:020000040000fa
:0401e40062040000b1
:020000040000fa
:0401e80062040000ad
:020000040000fa
:0401ec0062040000a9
:020000040000fa
:0401f00062040000a5
:020000040000fa
:0401f40062040000a1
:020000040000fa
:0401f800620400009d
:020000040000fa
:0401fc006204000099
:020000040000fa
:040200006204000094
:020000040000fa
:040204006204000090
:020000040000fa
:04020800620400008c
:020000040000fa
:04020c006204000088
:020000040000fa
:040210006204000084
:020000040000fa
:040214006204000080
:020000040000fa
:04021800620400007c
:020000040000fa
:04021c006204000078
:020000040000fa
:040220006204000074
:020000040000fa
:040224006204000070
:020000040000fa
:04022800620400006c
:020000040000fa
:04022c006204000068
:020000040000fa
:040230006204000064
:020000040000fa
:040234006204000060
:020000040000fa
:04023800620400005c
:020000040000fa
:04023c006204000058
:020000040000fa
:040240006204000054
:020000040000fa
:040244006204000050
:020000040000fa
:04024800620400004c
:020000040000fa
:04024c006204000048
:020000040000fa
:040250006204000044
:020000040000fa
:040254006204000040
:020000040000fa
:04025800620400003c
:020000040000fa
:04025c006204000038
:020000040000fa
:040260006204000034
:020000040000fa
:040264006204000030
:020000040000fa
:04026800620400002c
:020000040000fa
:04026c006204000028
:020000040000fa
:040270006204000024
:020000040000fa
:040274006204000020
:020000040000fa
:04027800620400001c
:020000040000fa
:04027c006204000018
:020000040000fa
:040280006204000014
:020000040000fa
:100400008f8022000eff24000e01880000000000f3
:10041000000020000000e000020032000001200087
:1004200020028800140007002d0107000000e000f2
:1004300003003a00a0e8220001002000020037007b
:100440000000200001002000810f70000100320038
:100450000f000700000020000000e0000200320052
:1004600000000200000000009439020000000000bb
:100470000040da000000fe00400320000000e00021
:1004800002003200002020009001880000000600d9
:10049000a1028800800478000000eb001f003700f4
:1004a000e284440054a0b4009905ba00e2844400f8
:1004b00054a0b4009906ba00e284440054a0b400e9
:1004c0000006eb00476fde00fd07b200ae018800ba
:1004d000636ce10003003a000ad801000000eb0061
:1004e0000e003700606ce10008003a00004deb00a0
:1004f0000a05e800020039003420ec000af0a000f0
:100500008b05e900f9ff3e00040037006168e10057
:10051000010032000086eb000b00070019c7ba008b
:100520000e04e0001905ba0003003a000a00e000da
:10053000dbff3a0000000600fe07b200ae028800b2
:100540008a047800f5ff37000cd0a300e20f4d00bd
:100550001c00390089027800354dba000a05e80010
:10056000020039003420ec000af0a0008b05e900fd
:100570000f003200254dba000a05e80002003900dc
:100580003420ec000af0a0008b05e90008003200de
:100590000c00e0000600320015cdba000a05e800a4
:1005a000020039003420ec000af0a0008b05e900bd
:1005b0008984e80054a0b4000b00e000e2ff3a0098
:1005c000000006009902ba00055d78008b05e9007d
:1005d000f7ff3200c82ade00055d78008b05e900d0
:1005e000f3ff32000c00e000f1ff320019ddba0029
:1005f000eeff370092320400000000008632040053
:10060000000000006a320400000000005e320400b6
:1006100000000000323304000000000042330400f8
:10062000000000004e330400000000005a330400b4
:10063000000000003a2204000000000068240400ca
:1006400000000000b0230400000000007620040039
:1006500000000000041b040000000000dc1a04007d
:100660000000000054360400000000005e36040064
:10067000000000006836040000000000723604002c
:10068000000000007c3604000000000086360400f4
:10069000000000003614040000000000781404007c
:1006a00000000000de190400000000005c190400d6
:1006b0000000000046170400000000009418040029
:1006c000000000008806040000000000c8050400c7
:1006d00000000000cc0a040000000000a40c04008c
:1006e000000000005a120400000000003600f8006c
:1006f000809fbe00829fbe00849fbe00869fbe007a
:100700000000fa002ed1bf000040e8002ef1b70033
:1007100000888000610060000000e00057003200a7
:100720002fd1bf000040e8002ff1b7001018800063
:100730008000780020188000626222008f1a070073
:10074000703181002032890080318100303289008f
:10075000203281008000ea003032810000805000a9
:1007600040328900c110210040642200a21a070013
:100770008211210001112100c01021006d1a070013
:1007800060888000c034890070888000003589004e
:1007900040888000003489005088800070348900cf
:1007a00000682200d6120700d71007009211070038
:1007b00000888000620060000000e000030032005a
:1007c000208880001088880004003700613581008f
:1007d00020898000008040001088880010888000f8
:1007e00001112100061a07008210210001112100c9
:1007f000401121003d1a0700e16322008010210012
:10080000261a07003088800082632200800078006a
:10081000e0632200d9150700c1318100e0152000f6
:10082000808f500002003e00f0152000c03189008a
:10083000d1318100e0152000808f500002003e0081
:10084000f0152000d0318900e1318100e015200051
:10085000808f500002003e00f0152000e03189003a
:10086000e031810030638800d0318100306288003f
:10087000c03181003061880008003700f015200089
:1008800030638800f015200030628800f0152000e9
:100890003061880010002000608988004f16070032
:1008a0005810070001a8a9000080fa004f03be00fd
:1008b0004f02be004f01be004f00be003600f900df
:1008c000004006000040da000000fe0000f0a70033
:1008d0000000ea0000f0a7000080ea000000060027
:1008e0000000050014002000020037006011b8006d
:1008f0001b003700889fbe008a9fbe00841f7800bf
:100900006c0007004f00780011003300f0ff2f004b
:10091000838f6c0006003b00040565000a00a700f9
:100920000800370009f0a60010002000080037007a
:10093000820f5400838f5c000300390010002000f8
:1009400001003e000000200009f0a7000000ea00be
:100950004f05be004f04be000000e000000006008e
:10096000889fbe008a9fbe00008270000402710052
:1009700004827100260032000004be000200be00a6
:100980006011b8006b092000950220000182cf00a1
:100990000a0039000541b1000082cf00070039008c
:1009a0000541b1000982cf00040039000541b100c2
:1009b0000882cf00010039000541b1000542520014
:1009c000120032000a003b00828171006101640064
:1009d0008100d1000080d3008984d3000884d30033
:1009e0008b05e8000442e800f7ff3a0007003700f3
:1009f0000804440089844c000000480081804800bd
:100a00008b05e9000442e900f9ff3a000300070002
:100a10004f05be004f04be0000000600810020000c
:100a2000618055000b003d000b00200061fe2f008f
:100a30000100e1001d003400828171006101640049
:100a40008904d1000884d3000000e800faff3a00ce
:100a5000710020006100640003007000020060006b
:100a60000900320061044400e0844c000988a500bc
:100a7000050032008b05e8006808e10002003a003a
:100a80008904d1000884d300f20f20000258e1004d
:100a900005003d00c75ddd00f907b20089807500e3
:100aa00008007800000006000bf827008b00780093
:100ab000000005000004be00060007000003be00a1
:100ac0000405be000200be0002000700844f75004e
:100ad00000000600c70ade00f107b200f50fb20001
:100ae00008003200e1cf4200020032000170a00095
:100af00024000500810f7000010032000408050089
:100b000044000500810f700002003a001400050047
:100b10008502e9000000400081c04800fcff3b0066
:080b20000170a0002400050093
:020000040000fa
:100b2800ffff000088060000c8050000cc0a00008e
:100b3800a40c00005a120000000000000000000091
:100b4800000000000000000000000000000000009d
:100b58000100000022270000000000000000000043
:100b68004d61000072200000203300002032000098
:100b78003031000036310000343a000031390000cd
:080b88003a33000037000000c1
:020000040000fa
:100b90000400fa00100798001e0090008080eb000f
:100ba000010878000040eb00004f78000e0037008d
:100bb0001e80fb009e0090000000e8000000400046
:100bc000008040008000eb00010878001e80fb00e0
:100bd0009e00900000804000720040008040eb00ca
:100be000014878001e4fe8001e407800e74f500093
:100bf000efff36001e009000a1142100510898005c
:100c00001e0190006000b8000011980011119800ba
:100c10001e0190006000b80020119800311198006a
:100c20001e0090008000eb00411098001e00900014
:100c30008040eb00216898001e0090008000eb00cf
:100c4000611098001e0190006000b80070119800bb
:100c5000011998001e0090008040eb002170980060
:100c60001e0090008040eb00317098001e00900044
:100c70008000eb00211898001e0090008000eb001f
:100c8000311898001e0090008000eb004118980079
:100c90001e0090008040eb00217898001e0190001b
:100ca0006000b80060199800711998001e0190004a
:100cb0006000b80000219800112198001e009000eb
:100cc0008040eb0041c098001e0190008038210058
:100cd0000100200030219800412198001e00900062
:100ce00011002000512098001e0190008038210042
:100cf000010020006009980071099800408a800076
:100d00009e009000410898000080fa000000060054
:100d10000800fa00300798003e0090006010900034
:100d2000e40f500012003200e40f500007003e00b4
:100d3000e10f50000e013200e10f500007023900b0
:100d4000e20f50001500320011023700e60f50008c
:100d5000a1003200e60f500039003900e70f5000c3
:100d6000b3013200e80f50008b0132000802370057
:100d70003e009000401890008000e8003e00900087
:100d8000411898003e009000301890008000e80064
:100d90003e00900031189800fd0137003e009000a1
:100da000b01890003e0090002019900010c0b300d1
:100db000828f5000010031000040eb000101e8008b
:100dc000be009000b21898000004e0001600320047
:100dd0003e0090008000eb00311898003e0090002b
:100de000180607003e0090007011900080199000d6
:100df0003e009000207090000080fb008000eb001f
:100e00000201400083814800803821000100200059
:100e1000800f5100818f5900030036003e00900082
:100e20008000eb00611098003e0090004018900098
:100e30008000e8003e00900041189800d40137007f
:100e40003e009000206890000080fb00e20f500000
:100e500024003200e40f500041003200e10f500046
:100e6000c0013a003e009000b010900020109000a9
:100e7000004178003e00900090109000001090001b
:100e800000407800804f51000d003d003e00900072
:100e900040109000104178003e00900090109000ab
:100ea0000010900000407800804f51000400350091
:100eb0003e009000410020006110980008003700bb
:100ec0003e00900040109000104078000000fb00b1
:100ed000cf80de003e019000201198003111980073
:100ee0003c0037003e009000b010900020109000b1
:100ef000000178003e0090009010900000109000db
:100f000000007800800f51000d003d003e00900071
:100f100040109000100178003e009000901090006a
:100f20000010900000007800800f51000400350090
:100f30003e0090004100200061109800070037003b
:100f40003e0090004010900010007800cf80de003e
:100f50003e01900020119800311198001d003700cb
:100f60003e00900020119000b01190003e009000d3
:100f70009010900000109000800f5100818f590058
:100f80000d003d003e009000401090001001be009a
:100f90003e0090009010900000109000800f5100d3
:100fa000818f5900040035003e0090004100200070
:100fb00061109800060037003e009000401090003d
:100fc0001000be003e0190002011980031119800e1
:100fd000000000006e0137003e0090002068900085
:100fe0000080fb00e20f500024003200e40f5000ac
:100ff00041003200e10f50005c013a003e009000d9
:10100000b010900020109000004178003e00900049
:10101000901090000010900000407800804f510028
:101020000d0034003e009000401090001041780008
:101030003e0090009010900000109000004078005a
:10104000804f510004003c003e0090004100200011
:1010500061109800080037003e009000401090009a
:10106000104078000000fb00cf80de003e019000c1
:1010700020119800311198003c0037003e0090008c
:10108000b010900020109000000178003e00900009
:10109000901090000010900000007800800f510028
:1010a0000d0034003e0090004010900010017800c8
:1010b0003e0090009010900000109000000078001a
:1010c000800f510004003c003e00900041002000d1
:1010d00061109800070037003e009000401090001b
:1010e00010007800cf80de003e01900020119800b3
:1010f000311198001d0037003e0090002011900033
:10110000b01190003e0090009010900000109000f0
:10111000800f5100818f59000d0034003e00900077
:10112000401090001001be003e0090009010900012
:1011300000109000800f5100818f590004003c0086
:101140003e0090004100200061109800060037002a
:101150003e009000401090001000be003e01900044
:10116000201198003111980000000000080137009c
:101170003e0090000a05070010079800210798001c
:101180003e009000b01890003e00900020199000a2
:1011900010c0b300828f5000010031000040eb000e
:1011a0000101e800be009000b21898000004e000c1
:1011b0004e0032003e0090008000eb003118980095
:1011c0003e00900000219000902190003e00900091
:1011d000207090000080fb008000eb0002014000c6
:1011e000838148008038210001002000800f5100d9
:1011f000818f5900040034003e0190006000b80067
:1012000000219800112198000040eb00004f780069
:101210000040eb00104798003e00900050089000fe
:10122000800178003e009000902090000020900007
:1012300000017800828141001e81fb003e02900087
:101240000201e8000201410002014200120178009f
:10125000020278001e4190000281fb000201420060
:10126000124178008249780061004000e080480027
:101270003e01900000219800112198001e4090002e
:101280000040e800104798001e80fb00be00900060
:101290007200400000804000904078001e409000a6
:1012a00080cf5000dcff3e001e4fe8003e00900063
:1012b000307090009e4f5000d5ff3e003e009000e1
:1012c00000219000902190003e009000f0189000c6
:1012d00060189000800f5100818f59000300350085
:1012e0003e00900011c0b30041c098001e01900064
:1012f000ae0190003e009000760407000004e0007c
:101300001f0032003e00900040c090000004e0004a
:101310001b0032003e009000f01890006018900012
:10132000e00f5000e08f58000a003c003e009000a3
:10133000f0189000601890003e0190000021980085
:10134000112198003e00900081002000611098005b
:10135000090037003e00900090209000002090008f
:101360003e01900070119800011998003e00900015
:101370007100200061109800000000008400370018
:101380003e0090001e019000ae01900022109800d7
:10139000331098007e0037003e009000b018900097
:1013a0003e0090002019900010c0b300828f5000c2
:1013b000010031000040eb000101e800be00900098
:1013c000b21898000004e0006a0032003e0090006d
:1013d0008000eb00311898003e0090000021900042
:1013e000902190003e009000207090000080fb0053
:1013f0008000eb0002004000838048003e01900026
:1014000000219800112198003e009000902090004b
:1014100000209000e00f5000e08f5800570035008a
:101420003e00900021002000611098005800370015
:101430003e009000b01890003e00900020199000ef
:1014400010c0b300828f5000010031000040eb005b
:101450000101e800be009000b21898000004e0000e
:10146000480032003e0090008000eb0031189800e8
:101470003e00900070119000801990003e00900096
:10148000207090000080fb008000eb000201400013
:10149000838148008038210001002000800f510026
:1014a000818f5900040036003e0190006000b800b2
:1014b00070119800011998003e0090006104070027
:1014c0003e00900090209000002090000001be009f
:1014d0003e009000801890007010900000015100b4
:1014e000818159003e009000f01890006018900033
:1014f000800f5100818f5900140032003e0090008f
:1015000090209000002090000001be003e0090005e
:1015100080189000701090000001510081815900e6
:101520003e009000c020900030209000020140005a
:10153000838148003e009000f018900060189000f1
:10154000800f5100818f590010003e003e00900036
:101550008000eb00611098000d00370000000000d3
:101560000b003700000000000900370000000000f9
:1015700007003700000000000500370000000000f1
:1015800003003700000000000100370000000000e9
:101590000080fa00000006000400fa00000f780046
:1015a000110798001e0078006010900080407800bd
:1015b0001e009000014878001e0090000000e80026
:1015c0009e007800b1709000014878001e009000e5
:1015d0000080e8009e007800a1189000814078000b
:1015e000014878001e009000630040009e007800d3
:1015f000a1189000c808de008140780001487800fa
:101600001e009000640140001e00780080189000c9
:101610007010900000407800004978001e00900093
:10162000650140001e007800801890007010900046
:10163000c809dd004800de0000807100c808de0037
:1016400000407800004978001e00900066014000cc
:101650001e00780080189000701090004008de0096
:1016600000407800004978001e00900067014000ab
:101670001e00780080189000701090004808de006e
:1016800000407800004978001e009000680040008b
:101690009e007800d10890008140780001487800d1
:1016a0001e009000690140001e0078005008900064
:1016b000cf80de00c809dd004800de000080710038
:1016c000c808de0000407800004978001e00900045
:1016d0006a0140001e00780050089000cf80de00b4
:1016e0004008de0000407800004978001e009000ad
:1016f0006b0140001e00780050089000cf80de0093
:101700004808de0000407800004978001e00900084
:101710006c0140001e007800f018900060189000e6
:1017200000407800004978001e0090006d014000e4
:101730001e007800f018900060189000c809dd00c5
:101740004800de0000807100c888de00004078009c
:10175000004978001e0090006e0140001e007800d5
:10176000f0189000601890004088de00cf80de0006
:1017700000407800004978001e0090006f01400092
:101780001e007800f0189000601890004888de0075
:10179000cf80de0000407800004978001e009000f5
:1017a000700140001e007800902090000020900002
:1017b00000407800004978001e0090007101400050
:1017c0001e0078009020900000209000c809dd00e5
:1017d0004800de0000807100c888de00004078000c
:1017e000004978001e009000720140001e00780041
:1017f00090209000002090004088de00cf80de0026
:1018000000407800004978001e00900073014000fd
:101810001e00780090209000002090004888de0094
:10182000cf80de0000407800004978001e00900064
:10183000740140001e007800c0209000302090000d
:1018400000407800004978001e00900075014000bb
:101850001e007800c020900030209000c809dd00f4
:101860004800de0000807100c808de0000407800fb
:10187000004978001e009000760140001e007800ac
:10188000c0209000302090004008de00004078002a
:10189000004978001e009000770140001e0078008b
:1018a000c0209000302090004808de000040780002
:1018b000004978001e009000780140001e0078006a
:1018c000f00890006008900000407800004978001f
:1018d0001e009000790140001e007800f008900082
:1018e00060089000c809dd004800de00008071003b
:1018f000c808de0000407800004978001e00900013
:101900007a0140001e007800f00890006008900006
:101910004008de0000407800004978001e0090007a
:101920007b0140001e007800f008900060089000e5
:101930004808de000040780000497800c0c1b300cc
:101940000080fa00000006001400fa00881f7800ea
:1019500070079800010f98002257980040c0b3000c
:10196000204798000040eb00004f7800ae40900008
:1019700011479800ae5090002e40900080cf50004c
:101980000200310010c0b300c70237000e089000fb
:101990000000e80010407800e84f500002003600d8
:1019a00010c0b300c00237000e0890000000e8002d
:1019b000104078000004e00002003a0010c0b300bc
:1019c000b90237007e0090008000eb0061109800a3
:1019d0007e0090008040eb00317098007e00900007
:1019e0008000eb00411898007e0190006000b80074
:1019f00070119800011998000e0890000080e8000e
:101a0000104078008080fb000e08900063004000ca
:101a1000104078000080fb004800dd00808040001e
:101a20007e009000211898007e009000a018900081
:101a30007e009000311898007e0190006000b80090
:101a400020119800311198007e0090008040eb003a
:101a5000217098007e00900021c0b300217898008a
:101a60007e0090008040eb0041c098007e01900015
:101a70006000b8000021980011219800160137007d
:101a80001e4090000080fb008e0890000080400007
:101a900010417800324798001e4090000040e80056
:101aa000104798003e4090000080fb00e10f50007e
:101ab0000a003200e10f500003003c000000e0008b
:101ac0009b003200d0003700e20f5000510032007e
:101ad000e30f500072003200cb0037001e40900030
:101ae0000080fb008e0890000080400010407800cd
:101af0008080fb001e4090000080fb000000e8009a
:101b00000e09900000004100104078000080fb00aa
:101b10004800dd0000804000200798001e40900033
:101b20000080fb000080e8008e08900000804000ec
:101b3000104078008080fb001e4090000080fb0079
:101b4000630040000e099000000041001040780042
:101b50000080fb004800dd00008040003007980056
:101b6000408a800010007800be0090000e0307003d
:101b7000400798004e0090000000e00002003a008c
:101b800010c0b300480237004e009000900078006b
:101b900051079800408a800010009000de009000fd
:101ba000d9020700600798006e0090000000e00076
:101bb00002003a0010c0b3003b0237001e84fb0055
:101bc0006e00900050019000ae0090004e0090001a
:101bd00002000100800078007e0190000800e8000b
:101be0000000400000004100010878001e80fb005a
:101bf000fe0090000000e80000004000008040006f
:101c0000100078000000e00081003a0010c0b3002e
:101c1000250237001e4090000080fb000080e80095
:101c20008e08900000804000104078008080fb000b
:101c30001e4090000080fb00630040000e099000f1
:101c400000004100104078000080fb004800dd00eb
:101c50000080400030079800408a80001000780023
:101c6000be009000d0020700400798004e00900090
:101c70000000e00002003a0010c0b3000a02370082
:101c80001e80fb00fe0090000000e8000000400005
:101c9000008040004e019000020878005d0037008f
:101ca0001e4090000080fb000080e8008e0890003d
:101cb00000804000104078008080fb001e409000b3
:101cc0000080fb00630040000e099000000041000e
:101cd000104078000080fb004800dd0000804000dc
:101ce00030079800408a800010007800be00900005
:101cf000ad020700400798004e0090000000e00091
:101d000002003a0010c0b300e70137001e80fb005c
:101d1000ce009000910078007e0190000000e80065
:101d20000000400000004100010878003900370041
:101d30001e83fb001e4090000080fb008e08900078
:101d400000804000104078000081fb008001eb0023
:101d50001e4090000080fb000000e8008e0890000c
:101d600000804000104078000082fb008002eb0001
:101d70004828dd00c820de00810070004820dd001a
:101d800002014000838148001e4090000080fb005b
:101d90000080e8008e08900000804000104078002d
:101da0000080fb008000eb00c000dd000000200090
:101db00002014000838148001e4090000080fb002b
:101dc000630040008e0890000080400010407800c2
:101dd0000080fb008000eb00c800dd000000200058
:101de00002004000838048000000780080007800f6
:101df0007e0190000600e800000040000000410065
:101e0000010878000300370010c0b300a6013700b6
:101e1000000000001e80fb009e4090008180fb00bf
:101e2000e48040000e09900081004100914078005c
:101e30007e019000000041007200400001487800df
:101e40007e009000a07090001e80fb007e0190003c
:101e500072004000000041001040780080c0400047
:101e60007e009000217098007e009000a078900085
:101e70001e80fb007e0190007200400000004100c7
:101e80001040780080c040007e00900021789800cb
:101e90007e009000207090000080fb0081382100bf
:101ea00000017800110009008200d8008000fd00c8
:101eb0008138210000805000cf80de007e0190003c
:101ec00030219800412198001e409000654040005c
:101ed000104798001e4fe8000e0890000000e80030
:101ee000104078009e4f5000e5fe3e001e409000de
:101ef0000080fb008e089000008040009040780039
:101f00007e009000216898001e4090000040e8008c
:101f1000104798001e4090000080fb008e08900043
:101f20000080400090407800314798001e409000ab
:101f30000040e800104798003e4090000080fb0001
:101f4000e10f50000a003200e10f500003003c0096
:101f50000000e0008a003200bb003700e20f5000b2
:101f600048003200e30f500065003200b600370031
:101f70001e4090000080fb008e0890000080400012
:101f8000104078008080fb001e4090000080fb0025
:101f90000000e8000e0990000000410010407800a9
:101fa0000080fb004800dd00008040002007980012
:101fb0001e4090000080fb000080e8008e0890002a
:101fc00000804000104078008080fb001e409000a0
:101fd0000080fb00630040000e09900000004100fb
:101fe000104078000080fb004800dd0000804000c9
:101ff00030079800408a800010007800be009000f2
:10200000e9010700400798004e0090000000e00042
:1020100002003a0010c0b300230137004e009000c8
:102020001001780052079800408a8000100090004c
:10203000de009000b4010700600798006e00900079
:102040000000e00002003a0010c0b30016013700a3
:102050006e00900050019000ae0090004e00900085
:1020600002000100fe009000c01098007e00900069
:10207000401090000000e00075003a0010c0b3006e
:10208000090137001e4090000080fb000080e8003e
:102090008e08900000804000104078008080fb0097
:1020a0001e4090000080fb00630040000e0990007d
:1020b00000004100104078000080fb004800dd0077
:1020c0000080400030079800408a800010007800af
:1020d000be009000b4010700400798004e00900039
:1020e0000000e00002003a0010c0b300ee0037002c
:1020f0007e009000ce0090004110980055003700ff
:102100001e4090000080fb000080e8008e089000d8
:1021100000804000104078008080fb001e4090004e
:102120000080fb00630040000e09900000004100a9
:10213000104078000080fb004800dd000080400077
:1021400030079800408a800010007800be009000a0
:1021500095010700400798004e0090000000e00045
:1021600002003a0010c0b300cf0037004e009000cc
:10217000900078007e0090004110980035003700f4
:102180001e4090000080fb008e0890000080400000
:10219000104078000081fb008001eb001e409000a1
:1021a0000080fb000000e8008e08900000804000e6
:1021b000104078000082fb008002eb004828dd0020
:1021c000c820de00810070004820dd0002014000d0
:1021d000838148001e4090000080fb000080e800e2
:1021e0008e08900000804000104078000080fb00c6
:1021f0008000eb00c000dd00000020000201400074
:10220000838148001e4090000080fb006300400076
:102210008e08900000804000104078000080fb0095
:102220008000eb00c800dd0000002000020040003c
:102230008380480000007800800078007e009000d5
:10224000411098000300370010c0b300960037001b
:10225000000000001e4090006440400010479800bd
:102260001e4090000080fb008e089000008040001f
:10227000104078000081fb008001eb001e409000c0
:102280000080fb000000e8008e0890000080400005
:10229000104078000082fb008002eb004828dd003f
:1022a000c820de00810070004820dd0002014000ef
:1022b000838148001e4090000080fb000080e80001
:1022c0008e08900000804000104078000080fb00e5
:1022d0008000eb00c000dd00000020000201400093
:1022e000838148001e4090000080fb006300400096
:1022f0008e08900000804000104078000080fb00b5
:102300008000eb00c800dd0000002000020040005b
:10231000838048007e019000001198001111980000
:102320001e40900064404000104798001e409000fe
:102330000080fb008e089000008040001040780074
:102340000081fb008001eb001e4090000080fb003c
:102350000000e8008e0890000080400010407800e7
:102360000082fb008002eb004828dd00c820de0070
:10237000810070004820dd00020140008381480098
:102380001e4090000080fb000080e8008e08900056
:1023900000804000104078000080fb008000eb00cf
:1023a000c000dd00000020000201400083814800e1
:1023b0001e4090000080fb00630040008e089000eb
:1023c00000804000104078000080fb008000eb009f
:1023d000c800dd00000020000200400083804800ab
:1023e0007e01900060199800711998001e409000bd
:1023f00064404000104798001e4090000080fb00a1
:102400008e08900000804000104078008080fb0023
:102410007e009000512098001e4090000040e8008f
:1024200010479800ae5090001e40900080cf5000a2
:102430000d0036001e4090000080fb008e089000ca
:102440000080400010407800e14f50000b003a003f
:102450007e009000520007007e019000201198003d
:1024600031119800050037007e0090004c000700f5
:102470007e01900020119800311198000e08900004
:102480000000e800904078007e00900031709800d5
:102490000e089000104078008080fb007e009000c5
:1024a000611098000040eb004f0478000080fa00b3
:1024b000000006000600fa001007980021079800a7
:1024c0000000eb00000f78001e0078000080fa008a
:1024d000000006000600fa00000f780012079800be
:1024e000230798001e00780050209000e10f500054
:1024f00015003a001e00780020119000b0119000e5
:102500001e0078009010900000109000800f510085
:10251000818f59000a003d001e00780000119000d4
:10252000901190001e009000ae009000800f5100ae
:10253000818f590002003c0010c0b3001600370024
:102540000040eb00140037001e00780020119000be
:10255000b01190001e0078009010900000109000c4
:10256000800f5100818f59000a0034001e0078004e
:1025700000119000901190001e009000ae0090009d
:10258000800f5100818f59000200350010c0b30048
:10259000010037000040eb000080fa000000060058
:1025a0000600fa00200798002e0090002068900096
:1025b0000080fb00e20f500013003200e40f5000d7
:1025c00017003200e10f50001a003a002e00900070
:1025d00040109000104078000000fb00cf80de002b
:1025e000008fbe001e00be00c800dd0000002000fd
:1025f000008fbe001e00be004888de00cf80de00d7
:10260000008fbe000c0037002e009000401090009c
:1026100010007800cf80de00008fbe00060037007b
:102620002e00900040109000301f78002017780096
:1026300001003700000000001e00be000080fa000c
:10264000000006000400fa00100798000040eb00ac
:10265000004f78000040eb00104798001e009000eb
:1026600050089000800178001e00900080189000b3
:102670007010900000017800828141001e81fb00f3
:102680001e0290000201e800020141000201420026
:1026900012017800020278001e4190000281fb00c6
:1026a0000201420012417800824978006100400036
:1026b000e08048001e0190007011980001199800f8
:1026c0001e4090000040e800104798001e80fb006c
:1026d0009e00900072004000008040009040780012
:1026e0001e40900080cf5000dcff3e001e4fe800ef
:1026f0001e009000307090009e4f5000d5ff3e00ad
:102700000080fa00000006000800fa002007980088
:10271000310798000000eb00000f7800010037003f
:102720001e0fe8001e007800ec00b900ae0090001b
:1027300000804000900078003e009000808f5000a4
:10274000070032001e007800ec00b900ae009000d7
:1027500000804000100078000000e000f0ff3a0028
:102760001e007800ec00b900ae0090000080400030
:10277000100078000000e00003003a000000eb00c9
:1027800010079800050037001e007800ec00b90023
:10279000ae00900000804000100798001e009000de
:1027a0000080fa00000006000800fa0020079800e8
:1027b000310798002e0090000000e00003003a006e
:1027c0000000eb00000f7800250037000000eb0050
:1027d00010079800030037001e0090000000e8007a
:1027e000100798001e0090004200dd00ae0090002f
:1027f00000804000900078003e009000808f5000e4
:10280000070032001e0090004200dd00ae00900084
:1028100000804000100078000000e000eeff3a0069
:102820001e0090004200dd00ae00900000804000dd
:10283000100078000000e00003003a000000eb0008
:10284000000f7800060037001e0090004200dd00f7
:10285000ae0090000080400090009000010f7800d2
:102860001e0078000080fa00000006000200fa0056
:10287000000f78001e00780021c0b300414098008e
:102880001e007800300090000000e80011c2b30084
:10289000014878001e007800900090001e0078002b
:1028a000010001000080fa00000006000400fa00a8
:1028b000000f7800214798001e00780021c0b30067
:1028c000414098001e007800300090000000e800b1
:1028d000ae409000014878001e0078009000900003
:1028e0001e007800010001000080fa0000000600d0
:1028f0000800fa00300798003e009000d040900099
:10290000d0c2b30080cf500004003e0051c1b300dc
:102910003e009000e5ff07005a0137003e0090009e
:10292000e1c2b300414098003e00900030009000aa
:102930000000e8008040eb00014878003e00900075
:10294000300090000080e80051c0b30001487800da
:102950003e00900030009000630040008040eb009b
:10296000014878003e009000300090006400400074
:10297000418a8000a10890008140780001487800d9
:102980003e0090003000900065004000418a8000c9
:10299000a1089000c808de00814078000148780056
:1029a0003e0090003000900066004000be009000a5
:1029b000d1409000014878003e0090003000900027
:1029c0006700400001c1b300014878003e0090005c
:1029d000300090006800400021c8b3000148780032
:1029e0003e0090003000900069004000d1c4b30068
:1029f000014878003e009000300090006a004000de
:102a000011c6b300014878003e00900030009000ed
:102a10006b00400021c7b300014878003e009000e1
:102a2000300090006c00400001c2b3000148780003
:102a30003e009000300090006d00400031c3b300b4
:102a4000014878003e009000300090006e00400089
:102a500021c3b300014878003e0090003000900090
:102a60006f00400001c3b300014878003e009000b1
:102a7000300090007000400011c3b300014878009e
:102a80003e009000300090007100400061c3b30030
:102a9000014878003e009000300090007200400035
:102aa00011c3b300014878003e0090003000900050
:102ab0007300400041c3b300014878003e0090001d
:102ac000300090007400400011c3b300014878004a
:102ad0003e009000300090007500400091c3b300ac
:102ae00001487800408a8000300890000000e00033
:102af00011003a00c0c0b300004f78003e009000c3
:102b0000b00090001e80fb00760040000080400076
:102b1000d1c2b300014878001e80fb000000ea002b
:102b20004f00de00004078001e4fe9000004e00086
:102b3000f2ff3a00670037003e009000300090003e
:102b400076004000418a8000b108900091407800f2
:102b5000014878003e00900030009000770040006f
:102b6000418a8000b10890008100e800914078001f
:102b7000014878003e00900030009000780040004e
:102b8000418a8000b10890008180e800914078007f
:102b9000014878003e00900030009000790040002d
:102ba000418a8000b1089000e480400091407800a4
:102bb000014878003e009000300090007a0040000c
:102bc000418a8000b1089000e58040009140780083
:102bd000014878003e009000300090007b004000eb
:102be000418a8000b1089000e78040009140780061
:102bf000014878003e009000300090007c004000ca
:102c0000418a8000b1089000e8804000914078003f
:102c1000014878003e009000300090007d004000a8
:102c2000418a8000b1089000e9804000914078001e
:102c3000014878003e009000300090007e00400087
:102c4000418a8000b1089000ea80400091407800fd
:102c5000014878003e009000300090007f00400066
:102c6000418a8000b1089000eb80400091407800dc
:102c7000014878003e009000300090000002b00053
:102c8000418a8000b1089000ec80400091407800bb
:102c9000014878003e009000300090001002b00023
:102ca000418a8000b1089000ee8040009140780099
:102cb000014878003e009000300090002002b000f3
:102cc000418a8000b1089000ef8040009140780078
:102cd000014878003e009000300090003002b000c3
:102ce000418a8000b100900081407800014878005e
:102cf0003e009000300090004002b000418a800009
:102d0000c100900081407800014878003e009000aa
:102d1000300090005002b000418a8000c100900055
:102d2000c808de0081407800014878003e0090002d
:102d3000300090006202200000014100408a8000c3
:102d4000e0009000500090000040780000497800ba
:102d50003e0090003000900072022000000141000f
:102d6000408a8000e000900050009000c809dd001b
:102d70004800de0000807100c808de0000407800d6
:102d8000004978003e009000300090008202200050
:102d900000014100408a8000e00090005000900057
:102da0004008de0000407800004978003e009000b6
:102db000300090009202200000014100408a800013
:102dc000e0009000500090004808de0000407800cd
:102dd00000497800408a8000cf80de00100798000c
:102de000210798003e00900030009000a002b00043
:102df0009e00900081407800014878003e009000dd
:102e000030009000b2022000000141001e0090003e
:102e1000ae009000c809dd004800de0000807100af
:102e2000c808de0000407800004978003e009000ad
:102e300030009000c2022000000141001e009000fe
:102e4000ae0090004008de000040780000497800a5
:102e50003e00900030009000d202200000014100ae
:102e60001e009000ae0090004808de000040780090
:102e7000004978003e009000900090003e009000d5
:102e8000010001000080fa00000006000c00fa00ba
:102e9000500798005e009000300090000080e8002d
:102ea000104078000080fb00c800dd005e0090004c
:102eb000300090000000e800104078000080fb0027
:102ec0000080400010079800408a800010007800c1
:102ed000e8004700010178009e0090007b01070098
:102ee000200798000e4890000004e0000500320022
:102ef0000e489000804078005e0090006bfe070056
:102f000087003700408a8000200090000000e00029
:102f1000330032000000eb00000f780001003700a2
:102f20001e0fe800408a8000a00090001e0078007c
:102f30004200dd0000804000900078001e009000fc
:102f4000808f500008003200408a8000a00090006e
:102f50001e0078004200dd00008040001000780074
:102f60000000e000eeff3a00408a8000a0009000e0
:102f70001e0078004200dd00008040001000780054
:102f80000000e00016003200408a8000a00090009f
:102f90001e0078004200dd0000804000900190009b
:102fa0005e00900040409000e34050005e009000c2
:102fb00030009000630040000141780080007800fc
:102fc0002e009000030001000004e00053003200d6
:102fd00021c4b3005e00900034fe070050003700ab
:102fe000408a8000100090000000e00004003a00d9
:102ff00041c4b3005e0090002cfe0700480037007b
:103000002e00900090007800310798000000eb003f
:10301000000f7800010037001e0fe800408a800092
:10302000900090001e007800ec00b9000080400085
:10303000900078003e009000808f50000800320021
:10304000408a8000900090001e007800ec00b900db
:1030500000804000100078000000e000eeff3a0021
:10306000408a8000900090001e007800ec00b900bb
:1030700000804000100078000000e00004003a00ea
:1030800011c4b3005e00900008fe07002400370062
:10309000408a8000900090001e007800ec00b9008b
:1030a00000804000c00190005e0090004040900011
:1030b000e34050005e00900030009000630040004c
:1030c00001417800800078002e009000030001008c
:1030d0000004e0000400320041c1b3005e00900033
:1030e000f2fd07000e0037005e00900021c0b30023
:1030f000414098005e009000300090000000e80021
:103100008040eb00014878005e0090009000900045
:103110005e00900001000100010037000000000087
:103120000080fa00000006000c00fa00500798002a
:103130005e009000300090000080e80010407800b1
:103140000080fb00c800dd005e00900030009000b1
:103150000000e800104078000080fb000080400084
:1031600010079800408a800010007800e8004700af
:10317000010178009e009000d4000700200798000d
:103180000e4890000004e000050032000e48900058
:10319000804078005e009000c4fd070044003700c6
:1031a000408a8000100090000000e00004003a0017
:1031b00041c4b3005e009000bcfd07003c00370036
:1031c0002e00900090007800310798000000eb007e
:1031d000000f7800010037001e0fe800408a8000d1
:1031e000900090001e007800ec00b90000804000c4
:1031f000900078003e009000808f50000800320060
:10320000408a8000900090001e007800ec00b90019
:1032100000804000100078000000e000eeff3a005f
:10322000408a8000900090001e007800ec00b900f9
:1032300000804000100078000000e00004003a0028
:1032400011c4b3005e00900098fd0700180037001d
:10325000408a8000900090001e007800ec00b900c9
:1032600000804000300190005e009000300090002f
:103270000080e800800078002e009000020001002d
:1032800080c0e8005e009000414098005e00900021
:10329000300090000000e8008040eb00014878001a
:1032a0005e009000900090005e0090000100010020
:1032b0000080fa00000006000400fa0010079800e1
:1032c0000040eb00004f78001e009000300090009e
:1032d0000000e800104078000080fb00e20f500082
:1032e00016003200e20f500005003c000000e00034
:1032f0000a003200e10f50000c0032001f003700be
:10330000e40f500015003200e40f50000f003500ac
:10331000e50f50001500320018003700408a800089
:103320008000eb003100980017003700408a8000d1
:10333000110020003100980013003700408a8000ff
:1033400021002000310098000f003700408a8000e3
:1033500031002000310098000b003700408a8000c7
:10336000410020003100980007003700408a8000ab
:1033700051002000310098000300370020c2b30044
:10338000004f7800000000001e0090003000900008
:103390000000e8001e4878001e00900021c0b30025
:1033a000414098001e009000900090001e00900088
:1033b000010001000080fa00000006000200fa008f
:1033c000000f78001e007800300090000000e80038
:1033d0008040eb00014878001e007800300090002b
:1033e0000080e800418a8000b100900081407800b0
:1033f000014878001e00780031c0b30041409800b9
:103400001e007800900090001e007800010001006e
:103410000080fa00000006000400fa00100798007f
:103420000000eb00000f7800070037001e00780056
:1034300080004000e07622000080400061432100cf
:10344000010878001e0fe8001e007800fa0f5000f7
:10345000f6ff36001e009000e17622004100980041
:103460000080fa00000006000400fa00100798002f
:103470001e00900040009000000f78001e007800b1
:1034800081472100010878001e80e800e19d2100ad
:10349000010878009e00780064804000c1952100fa
:1034a00001087800410220001e8040006174210064
:1034b00001087800210220001e804000418921007f
:1034c000010878000080fa00000006000a00fa00f7
:1034d0002007980031079800420798002e009000be
:1034e0000000e00006003a000000eb00000f78004a
:1034f0004e00900031c4b300014878002b00370023
:103500000000eb0010079800030037001e00900039
:103510000000e800100798001e0090004200dd0047
:10352000ae00900000804000900078003e009000c7
:10353000808f5000070032001e0090004200dd0026
:10354000ae00900000804000100078000000e00015
:10355000eeff3a001e0090004200dd00ae00900039
:1035600000804000100078000000e00006003a00f3
:103570000000eb00000f78004e00900001c4b30083
:1035800001487800090037001e0090004200dd006d
:10359000ae0090000080400090009000010f780085
:1035a0004e0090008040eb00014878001e0078003b
:1035b0000080fa00000006000200fa00000f780008
:1035c0001e00780011002000110898001e007800ed
:1035d0008000eb00010898000080fa00000006005f
:1035e0000200fa00000f78001e0078008000eb0057
:1035f000110898001e0078008000eb007100980010
:103600000080fa00000006000600fa00200798007b
:10361000cb0037002e00900000089000e20f500011
:1036200035003200e20f500005003e000000e000cf
:103630000a003200e10f500019003200bd003700cf
:10364000e40f50008d003200e40f500040003900bc
:10365000e50f500094003200b60037002e009000b5
:1036600051c5b300415098002e0090008040eb00ff
:10367000515098002e0090005000900010017800ea
:103680002e0090005000900051c5b30002000100d0
:103690002e0090001100200001089800a8003700bb
:1036a0002e009000c05090002e00900040409000ee
:1036b00080c040002e009000415098002e009000e5
:1036c00050009000100178002e009000c040900043
:1036d0002e00900050009000020001002e0090008b
:1036e000f00040002e009000640040002200200006
:1036f00084010700920037002e009000c050900017
:103700002e0090004048900080c040002e009000a5
:10371000415098002e009000500090001001780059
:103720002e009000c04890002e00900050009000a5
:10373000020001002e009000f00040002e009000da
:103740006c004000320020006e0107007c00370052
:103750002e009000b00090002e009000505090007d
:103760000080fb0000804000ae009000310190001e
:10377000ae009000d15090008180fb00810041009c
:1037800091407800014878002e009000c0509000d1
:103790002e009000300190002e00900050509000bc
:1037a0000080fb00000041001040780080c0400015
:1037b0002e009000415098002e0090005000900084
:1037c000100178002e009000b00090002e009000b4
:1037d000505090000080fb00008040009040780036
:1037e0002e00900050009000020001002e0090007a
:1037f000505090000080fb008000e8002e009000f8
:10380000404090000080fb00808f50000b003a0089
:103810002e009000f00040002e009000300190003b
:103820002e009000505090000080fb0000004100ee
:1038300052002000330107000a0037002e009000dc
:10384000f00040002e009000300190002e0090000b
:10385000505090000080fb0000004100320020002a
:10386000280107002e009000505090008040e80092
:103870002e00900051509800310037002e0090002b
:1038800050009000100178002e0090005000900031
:103890008040eb0002000100e18980002e009000d2
:1038a00001089800260037002e009000c0509000bc
:1038b0002e009000415098002e009000c0509000c3
:1038c00050c5b30080cf5000040032002e0090009d
:1038d00040509000e24f500005003a002e0090004a
:1038e0004050900080c0ea002e00900041509800a7
:1038f0002e00900050009000100178002e009000e3
:10390000c05090002e009000500090000200010076
:103910002e00900050009000d00090002e009000eb
:1039200050009000010001002e0090002cff0700c5
:10393000030037002e00900029ff07000000000060
:103940002e00900010089000e10f5000da003a00bd
:103950002e00900050009000b00090002e009000cb
:1039600050009000010001000004e00029ff3a002f
:10397000d40037002e00900050009000900090007e
:103980002e00900050009000010001002047980098
:103990002e00900070009000e20f50003b003200bb
:1039a000e20f500005003e000000e0000a00320077
:1039b000e10f500013003200bb003700e40f50004d
:1039c0006c003200e40f500045003900e50f500054
:1039d00084003200b4003700ae40900050c5b30000
:1039e00080cf5000b6003a002e00900051c5b300c1
:1039f000415098002e0090001100200071009800a6
:103a0000b00037002e4090000004e00004003a00af
:103a10002e0090008000eb0071009800a900370094
:103a20002e009000d04090002e40900080cf50009b
:103a3000040031002e00900051c1b3009bfb070031
:103a4000a00037002e009000c05090002e40900043
:103a500080c040002e00900041509800ae40900081
:103a60002e009000414098002e0090008040eb0016
:103a7000515098002e009000ee0040000e80e800ab
:103a8000220020009f0007008e0037002e009000cb
:103a9000c04890002e40900080cf50000c003a00ab
:103aa0002e009000c05090002e40900080c040003a
:103ab0002e009000415098002e009000ee00400033
:103ac0000e80e800320020008e0007007d003700e5
:103ad0002e0090008000eb00710098007900370004
:103ae0002e009000c05090002e40900080c04000fa
:103af0002e009000415098002e009000b0009000e1
:103b00002e009000505090000080fb00008040008c
:103b1000ae409000014878002e0090005050900078
:103b20008040e8002e009000515098002e00900038
:103b3000d05090002e0090004040900080cf500068
:103b400006003a002e009000ee0040000e80e800d3
:103b5000520020006b0007005a0037002e00900032
:103b6000ee0040000e80e8003200200065000700f3
:103b7000540037002e4090000004e00004003a009a
:103b8000e18980002e009000710098004d00370000
:103b9000e11321009140780050c5b30080cf500060
:103ba0000c003a002e40900052c5b3008240400005
:103bb0002e00900041509800ae4090002e009000e2
:103bc000414098002e0090002100200071009800d4
:103bd0003c0037002e0090008000eb007100980040
:103be000380037002e009000c05090002e0090004a
:103bf000415098002e009000c050900050c5b30076
:103c000080cf5000040032002e0090004050900001
:103c1000e24f500005003a002e0090004050900006
:103c200080c0ea002e009000415098002e009000c5
:103c3000c05090002e40900080cf500016003a00f7
:103c40002e0090003000900010407800fa4f500095
:103c50000d003e002e00900040009000000f780004
:103c60002e00900030009000104078000080fb0093
:103c7000000040001e004000900078002e009000e0
:103c8000010001000f0037002e00900011c2b300a8
:103c900006fb07000b0037002e00900031c1b30077
:103ca00002fb0700070037002e0090008000eb00a9
:103cb0007100980003003700000000000100370089
:103cc000000000002e009000100890000000e000ae
:103cd00008003a002e00900050009000a0009000d4
:103ce0002e00900050009000010001000004e00050
:103cf00020ff3a002e0090001d0007000080fa000f
:103d0000000006000600fa00000f78001107980076
:103d1000220798001e0078009040780050c5b3003c
:103d200080cf5000040032001e0078001040780060
:103d3000e24f500009003a001e0078001040780061
:103d40003ef1b700ae009000e18988001e009000af
:103d50004100200001087800030037001e00900099
:103d6000ae009000010878000080fa000000060014
:103d70000800fa0030079800408a80004008900050
:103d80000000e000a1003200408a8000400890005e
:103d900060109000e40f50009c003a003e0090003c
:103da00050009000c00090003e0090005000900035
:103db000010001008080fb00408a800040089000e4
:103dc000207890000080fb0064004000808f50004d
:103dd00088003500408a800040089000b0189000ac
:103de000408a80004008900020189000808f50008a
:103df00080003900408a8000400890008000eb007d
:103e0000311898003e00900050009000100178009a
:103e10003e0090005000900021c0b300020001005d
:103e20003e0090005000900010017800408a800011
:103e300040089000a07890003e0090005000900054
:103e4000020001003e009000500090001001780038
:103e50003e009000c04890003e009000500090004e
:103e6000020001003e009000500090001001780018
:103e7000408a800040089000401890008040780000
:103e80003e00900050009000020001003e009000b3
:103e90005000900010017800408a80004008900097
:103ea000401890004800de00804078003e009000fe
:103eb0005000900002000100408a800040089000fd
:103ec000a07890003e0090004048900080c04000e4
:103ed000408a800040089000401890000040780020
:103ee00080c04000408a8000400890004018900048
:103ef0004800de000040780000c0400000c0e8003c
:103f0000404798000000eb00000f78000000eb0035
:103f100010079800408a8000c00890001e00e8004a
:103f20000000400000804000100078008000780011
:103f30001e0090000080400090407800514798009b
:103f40003e00900050009000100178003e0090006c
:103f500050009000de40900002000100ce40900032
:103f60005e40900000c04000404798001e00900056
:103f70000000e80010079800408a8000c008900008
:103f80001e0178007200410000804000104078005f
:103f90008080fb001e009000808f5000ddff3e00ff
:103fa0001e0fe800408a80004008900030709000aa
:103fb0000080fb009e0f5000d4ff3e004e4090005a
:103fc000e24f500003003a004e4090000080ea00ab
:103fd000404798003e00900050009000100178008b
:103fe0003e00900050009000ce4090000200010082
:103ff00006003700008a8000118a800061004000be
:10400000e0804800008a8800118a88000080fa0059
:10401000000006000600fa00000f78001107980063
:1040200042479800534798001e0078009e00900079
:10403000310098001e007800ce409000514098005a
:104040001e007800de4090004148980041b02100f9
:104050001e00780001087800c1ad21001e00780024
:10406000110098001e0078005dfd07000080fa0036
:10407000000006000400fa00100798001e009000df
:1040800040009000000f78009e0078007280400091
:10409000a1232200010878009e0078006e80400075
:1040a00081462200010878009e0078007080400060
:1040b000013b2200010878000080fa0000000600a1
:1040c0000400fa00100798001e00900040009000c5
:1040d000000f78009e007800748040006107220085
:1040e000010878000080fa00000006001200fa00c3
:1040f000000f980010c0b300004f98000e489000c9
:1041000000c0e800104f98001e4890000040e800f2
:10411000204f98000e089000b00090000e489000cc
:104120000080fb0000804000104078008080fb0091
:104130000e089000300190000e4890000080fb00b7
:104140000000e80000004100104078000080fb0003
:104150004800dd0000804000600798000e089000d5
:10416000c04090002e48900000c05000604f980062
:104170000e089000b00090001e4890000080fb00e8
:104180000080400090407800714f98006e48900089
:104190008080fb007e4890000080fb0000017800da
:1041a000110009008280d8008000fd0000407800e6
:1041b0000004e0000400320041c1b3000e0890008a
:1041c000baf90700a90037007e4890000080fb0084
:1041d000e20f50001b003200e40f50004300320099
:1041e000e10f500091003a00ee0090001107980096
:1041f0000000eb00000f78000d0037000e08900063
:10420000b00090002e4890000080fb001e0040008f
:1042100000804000904078001e0090000148780027
:104220001e0090000000e800100798001e0fe80034
:104230006e4890000080fb009e0f5000efff3e0094
:104240007e0037006e019000220798000000eb000e
:10425000000f78001d0037000e089000b00090009d
:104260002e4890000081fb001e00780000004000f6
:104270000000410000804000104078008080fb007a
:104280000e089000300190002e4890008081fb00c5
:104290001e00780000004000008041000000e8009f
:1042a00000004100104078000080fb004800dd0065
:1042b000808040002e009000010878002e009000c1
:1042c0000080e800200798001e0fe8006e4890006c
:1042d0000080fb000000d100004078000080fb005f
:1042e0009e0f5000dcff3e0054003700ee009000af
:1042f000310798000000eb00000f78004300370002
:104300000e089000b00090002e4890000081fb0045
:104310001e0078004200dd000000410000804000e7
:10432000104078000081fb008001eb000e08900037
:10433000b00090002e4890000082fb001e00780024
:104340004200dd00000042000000e8000080400064
:10435000104078000082fb008002eb004828dd005e
:10436000c820de00810070004820dd00020140000e
:10437000838148000e089000b00090002e48900005
:104380000082fb001e0078004200dd0000004200b9
:104390000080e80000804000104078000080fb00b2
:1043a0008000eb00c000dd000000200002014000a2
:1043b000838148000e089000b00090002e489000c5
:1043c0000082fb001e0078004200dd000000420079
:1043d0006300400000804000104078000080fb0037
:1043e0008000eb00c800dd0000002000020040005b
:1043f000838048003e0190000089be003e0090008e
:1044000064004000300798001e0fe8006e489000de
:104410000080fb004200de00004078000080fb00ce
:104420009e0f5000b6ff3e000400370041c1b300ac
:104430000e0890001df907000c0037000e089000d0
:1044400021c0b300414098000e0890003000900059
:104450000000e8008040eb00014878000e08900062
:10446000900090000e089000010001000080fa000a
:10447000000006001200fa00000f98000040eb0058
:104480002047980030c0b300204f98000e089000dd
:10449000b00090002e4890000080fb00008040009b
:1044a00090407800314f98000e089000b0009000c6
:1044b0002e4890000080fb000000e80000804000d3
:1044c00010417800424f98003e4890000080fb0069
:1044d0008080e8000e089000504090000080fb00b3
:1044e000808f50000300360050c1b3002047980071
:1044f000850037000e089000300090000000e800b2
:10450000104078008080fb000e0890003000900082
:104510000080e800104078000080fb004800dd00cb
:1045200000804000700798004e4890000080fb001b
:10453000e20f500019003200e40f50003700320043
:10454000e10f50006d003a00fe0190002307980033
:104550000000eb00000f78000b0037000e08900001
:10456000b00090001e80e80000804000ae00900087
:1045700091407800014878002e0090000000e8008b
:10458000200798001e0fe8003e4890000080fb00c6
:104590009e0f5000f1ff3e005b003700fe009000d0
:1045a000310798000000eb00000f7800160037007c
:1045b0000e089000b00090001e80e80000804000cf
:1045c000be0090009100780081407800014878009a
:1045d0000e089000b00090001e01780063004100ba
:1045e00000804000be00900091007800c808de0006
:1045f00081407800014878003e0090000080e8008b
:10460000300798001e8fe8003e4890000080fb00b5
:104610009e0f5000e6ff3e003b003700fe01900079
:10462000430798000000eb00000f78002e003700d1
:104630000e089000b00090001e80e800008140004d
:104640004e0090001000be00004078000049780045
:104650000e089000b00090001e0178006300410039
:10466000008140004e0090001000be00c809dd002f
:104670004800de0000807100c808de0000407800bd
:10468000004978000e089000b00090001e017800ec
:1046900064004100008140004e0090001000be0008
:1046a0004008de0000407800004978000e089000c5
:1046b000b00090009e0178006580410000814000bc
:1046c0004e0090001000be004808de000040780058
:1046d000004978004e0090006400400040079800b8
:1046e0009e007800648f40003e4890000080fb00f0
:1046f0009e0f5000ceff3e000300370040c1b300c4
:1047000020479800000000002e4090000004e000c8
:104710000e003a003e48900080c0e8000e0890006d
:10472000414098000e089000300090000000e80022
:104730002e419000024878000e08900090009000f2
:104740000e0890000100010003003700ae40900009
:104750000e08900055f807000080fa0000000600df
:104760000a00fa0040079800300020001007980067
:104770004e009000300090000000e80010407800eb
:104780008080fb004e009000300090000080e80028
:10479000104078000080fb004800dd0000804000f1
:1047a000200798002e0090009000780031079800b4
:1047b0000000eb00000f7800010037001e0fe8003a
:1047c000408a8000900090001e007800ec00b90044
:1047d00000804000900078003e009000808f5000e4
:1047e00008003200408a8000900090001e0078008f
:1047f000ec00b90000804000100078000000e000ec
:10480000eeff3a00408a8000900090001e00780081
:10481000ec00b90000804000100078000000e000cb
:1048200004003a0011c4b3004e0090001ff80700c6
:1048300025003700408a8000900090001e0078001c
:10484000ec00b90000804000c00190004e009000d4
:10485000c04090001e0090000040780080c05000d2
:104860004e009000300190001e00900000004100ba
:1048700001417800800078002e00900003000100c4
:104880000004e0000400320041c1b3004e0090007b
:1048900006f807000c0037004e00900021c0b3005e
:1048a000414098004e009000300090000000e80069
:1048b0008040eb00014878004e009000900090008e
:1048c0004e009000010001000080fa000000060088
:1048d0000800fa00300798003e0090003000900079
:1048e0000000e800104078008080fb003e0090004f
:1048f000300090000080e800104078000080fb004d
:104900004800dd0000804000100798001e00900065
:1049100090007800210798000000eb00000f78005d
:10492000010037001e0fe800408a800090009000d0
:104930001e007800ec00b900008040009000780074
:104940002e009000808f500008003200408a8000c6
:10495000900090001e007800ec00b900008040003c
:10496000100078000000e000eeff3a00408a80006e
:10497000900090001e007800ec00b900008040001c
:10498000100078000000e00004003a0011c4b300f9
:104990003e009000c5f7070018003700408a8000ed
:1049a000900090001e007800ec00b90000804000ec
:1049b000300190003e009000300090000080e80040
:1049c000800078001e0090000200010080c0e80016
:1049d0003e009000414098003e0090003000900062
:1049e0000000e8008040eb00014878003e009000a5
:1049f000900090003e009000010001000080fa004d
:104a0000000006000000fa0090358100e20f50001f
:104a100008003a00c03f8100a03589008035810040
:104a200080007800c03f8100808f500001003e0070
:104a30001c0007000080fa00000006000000fa00d9
:104a400090358100e10f500008003a000077210006
:104a5000a0358900a1358100908c2000808f500006
:104a600002003e00a08c2000a03589000080fa00e2
:104a7000000006000000fa0032d1bf000004e00090
:104a800004003a0010c0b30032f1b70034aea90000
:104a9000020037003271ef0034aea8000080fa0047
:104aa000000006000000fa0021a8a900f01520006f
:104ab00030638800f015200030628800f015200077
:104ac00030618800280607000011a9000000eb00f3
:104ad000803089000031a8000071a9000051a800b1
:104ae0000000eb00903589000a01070000682200f1
:104af000aa0107003d07070001a8a90021a8a800f6
:104b00000080fa00000006000200fa00889fbe0044
:104b100000888000620060000000e0004900320070
:104b200000888000640060000000e0002a0032007d
:104b30000051a9000000eb00a03089000000eb004c
:104b4000903089000000eb00003489000000eb0089
:104b5000103489000000eb00203489000000eb00d5
:104b6000303489000000eb00503489000000eb0075
:104b7000703489000000eb00803489000000eb00f5
:104b8000903489000000eb00a03489000000eb00a5
:104b9000b03489000000eb00c03489000000eb0055
:104ba000d03489000000eb00003589000000eb00e4
:104bb000103589000000eb00603589000000eb0033
:104bc000703589000000eb00003189006000b800fa
:104bd000e0308900f1308900708d2100803089003b
:104be00080308100a0308900d0888000d0328900d8
:104bf000a0308100c0328900d1328100c0328100f2
:104c0000c3112100a2642200d6080700e0888000ba
:104c1000b0888800c08880006033890090308100af
:104c2000503389006133810050338100e31121004a
:104c3000c2652200cb080700f0888000a0888800a9
:104c40006a0037007dff0700d13081003006200068
:104c5000808f500004003c00d03081000000e8004c
:104c6000d03089001c00370080308100800078003f
:104c7000a035810000805000c0308900c030810024
:104c80000000e00005003d0081308100b03081006f
:104c900000804000803089000400370081308100ae
:104ca000b03081000080500080308900c030810029
:104cb00006ef070080007800b0308100000040005f
:104cc000808f500002003d00a035810080308900b7
:104cd0000000eb00d0308900008880006400600094
:104ce0000000e000090032000051a900a03081005e
:104cf000cf80de00c000dd0000002000703389009e
:104d000081338900a08c20008030890080358100ab
:104d1000f033890080308100e0338900f133810075
:104d2000e033810003122100e26622008d080700b3
:104d300000898000a030890080308100e3ee070008
:104d40007206070090308900c088800060338900b7
:104d500090308100503389006133810050338100ed
:104d6000e3112100c26522007e080700f088800060
:104d7000a0888800f1888000f08880000180b90058
:104d80004109dd004f04de0008047100cf8cde0015
:104d900008007800000f78001e00780001d7270077
:104da00000805000000f78001e00780012070700f6
:104db000a0328900a03281000000ea00b0328900f0
:104dc000d0888000d0328900a0308100c0328900b4
:104dd000d1328100c0328100c3112100a2642200bf
:104de00060080700e0888000b08888004f04be009b
:104df0000080fa00000006000000fa00881f78001a
:104e000000888000620060000000e0002c0032009a
:104e100001318100f0702200808f500004003e00bc
:104e2000003181000000e8000031890019003700de
:104e3000e0308100f1308100acee070018c0b30013
:104e4000f2282c00538f2400a6ee07000000e0009b
:104e5000010035000044eb000804e00007003200c8
:104e6000e0308100f130810062004000e0804800c5
:104e7000e0308900f1308900060037000051a800b9
:104e80000031a90021888000603581000080500039
:104e900020898800e0308100f13081004409dd0084
:104ea0004c00de0000007100cc08de0080007800bd
:104eb0002088800000804000208888001200370091
:104ec0002089800000f0a7000000ea00e60f5000f3
:104ed0000d003400108980000000e0000a003a0054
:104ee000208980000000e00004003d00208980004f
:104ef0006600400020898800030037002089800078
:104f000066005000208988004f0478000080fa0075
:104f1000000006000000fa00000024009031890023
:104f20000000240030318900000024005031890045
:104f300010002000b030890040062000d0308900e9
:104f40002231ef00c0da20003088880090992100db
:104f5000003389003033210010338900e0fd270041
:104f600020338900f0ff270030338900303381007f
:104f70000000ea00403389006000b800e032890098
:104f8000f13289001e31ef009099210070328900c2
:104f9000a070210080328900e0fd27009032890056
:104fa000f0ff2700a0328900a03281000000ea0053
:104fb000b03289006000b800503289006132890047
:104fc0001c31ef00b04721009033890030002000f1
:104fd000a0338900e0fd2700b033890000002700de
:104fe000c0338900c03381000000ea00d03389005b
:104ff0006000b80070338900813389002031ef00f0
:105000000080fa00000006000e00fa005007980029
:10501000610798006000b800008fbe006000b80013
:1050200020079800310798000000eb004007980027
:1050300001a8a90021a8a8000000eb0040079800e3
:10504000140037002c31ef00000000006089800060
:105050000000e000fdff320020188000cf80de005d
:105060001e0f40005e97480010188000cf80de00c1
:105070002e039000be039000060040008780480089
:1050800020079800310798004e0090000000e800cb
:1050900040079800ce009000f0072000808f50005d
:1050a000e8ff36001e0078009e0090004909dd00f0
:1050b0004702de0004027100c78ade008400780027
:1050c0005e009000010878002e009000be00900065
:1050d000490add004701de0002017200c789de00d7
:1050e000820078006e009000010878002c31ef00fb
:1050f00021a8a9000080fa00000006000000fa00c4
:1051000089040700c162220080622200beff0700fe
:105110004e04070044e0a80044c0a8004480a80052
:1051200044e0a90053fe07000080fa0000000600da
:105130000000fa004ffe0700650ea80075ff07008b
:105140000068220015000700a805070055fe0700ab
:105150000080fa00000006000000fa0012040700b8
:105160000004e0000b003200008880006100600055
:105170000000e0000300320020002000903589008c
:10518000040037006f0407000011a8001000200081
:10519000903589000080fa00000006000600fa0041
:1051a000889fbe00000f7800e0252000e0358900d0
:1051b000e0358100d035890020172000c0358900f6
:1051c000c0358100cf80de000002400081824800af
:1051d000d03581006103b9004838dd00c830de00f9
:1051e000810070004830dd00800f5200818f5a002e
:1051f000040035001e0078008000eb00610098007c
:1052000011003700d6358100c03581006102b90038
:105210004828dd00c820de00810070004820dd0045
:1052200010079800210798001e029000ae0290001f
:1052300011000900462ad800f1ff270080805000a5
:105240001e00780061009800d0358100cf80de001c
:10525000480add00c802de00850272004802dd0057
:10526000e0ff270001002000800f5200818f5a00cc
:1052700004003c001e007800f1ff27004100980068
:105280000c003700d435810006f82f00f70320000a
:1052900016079800270798001e039000ae039000a1
:1052a00011000900443bd800800078001e007800ff
:1052b000410098001e007800c1cc260061089800cb
:1052c0001e007800410a200071089800a08c200080
:1052d000615f21000180b900c10bdd004f01de00dc
:1052e00002817300cf89de00820078001e00780002
:1052f000411098004f04be000080fa000000060034
:105300000800fa00889fbe008a9fbe008c9fbe00e6
:10531000100798004400f80044e0a80044c0a8002a
:105320004480a800770007001b0107001e009000c2
:10533000900890001e009000200090000000ea00fd
:10534000760607009e009000e01098001e00900076
:10535000e0109000308980008080500040898000fb
:1053600000804000408988001e009000601090007e
:1053700030898800508980000000e800508988004a
:1053800050898000f40f50000e003a0040898000e0
:10539000f15227000180b900c109dd004f01de0094
:1053a00002817100220798004f89de0032079800c1
:1053b000ae0090001e009000711098002a31ef009e
:1053c0002831ef00108980000000e8001089880073
:1053d00010898000e50f500001003a002231ef00f3
:1053e0001e00900000189000000178001e00900040
:1053f000f01090001e009000001890008080500077
:105400001e009000401090000180b900c109dd002d
:105410004f06de000c867100cf8ede000c00780097
:1054200000004100800078001e00900001189800e4
:105430001e00900000189000615f21000180b900fb
:105440004109dd004f05de000a057100cf8dde0049
:105450008a0078001e009000311098001e00900015
:10546000b01090001e00900021109800a08c200029
:10547000615f21000180b900c109dd004f04de0039
:1054800008847100cf8cde00080f78001e009000a9
:10549000201090009e0f500007003d001e0090005d
:1054a0009e007800211098001e009000a01090002f
:1054b0001e009000311098001e0090000100240092
:1054c000511098001e009000e01090001e00900007
:1054d00050109000808040001e00900061109800e5
:1054e0001e009000c1cc2600610898004400f9001d
:1054f0004f06be004f05be004f04be000080fa00fc
:10550000000006000e00fa00889fbe008a9fbe00c1
:105510008c9fbe0001348100403481000180b900bd
:10552000410add004f01de0002017200cf89de007a
:10553000020f780011348100403481000180b900ed
:10554000c109dd004f01de000281710032079800c1
:105550004f8ade0044079800be00900011079800b3
:1055600031348100403481000180b900c109dd007f
:105570004f01de0002817100520798004f8ade0061
:1055800064079800de009000210798001e0090003c
:105590001e0f10002e0090001e0f100051348100cd
:1055a000603481000180b9004109dd004f06de0052
:1055b0000c067100cf8ede000c0078001e0040004b
:1055c0005034890071348100403481000180b90079
:1055d000c109dd004f05de000a857100cf8dde00b8
:1055e0000a0f780081348100403481000180b900c5
:1055f000410add004f04de0008047200cf8cde009b
:1056000018079800a1348100403481000180b9005e
:105610004109dd004f03de0006037100cf8bde0081
:10562000260798001e0090001e0f10002e0090000c
:105630001e0f1000b1348100603481000180b90078
:10564000c109dd004f02de0004827100cf8ade0056
:10565000040078001e004000b034890051348100fd
:10566000c034810000805000d0348900b134810002
:10567000003581000080500010358900d034810051
:1056800092ec0700f1348100810f500002003d00d0
:105690001f00070009003700d03481000000e0003f
